{
  "abi": [
    {
      "inputs": [
        {
          "internalType": "string",
          "name": "_defaultMetadataUri",
          "type": "string"
        }
      ],
      "stateMutability": "nonpayable",
      "type": "constructor"
    },
    {
      "inputs": [],
      "name": "GuestAlreadyNominated",
      "type": "error"
    },
    {
      "inputs": [],
      "name": "GuestCantBeHost",
      "type": "error"
    },
    {
      "inputs": [],
      "name": "GuestNotNominated",
      "type": "error"
    },
    {
      "inputs": [],
      "name": "InsufficientFunds",
      "type": "error"
    },
    {
      "inputs": [],
      "name": "InvalidHost",
      "type": "error"
    },
    {
      "inputs": [],
      "name": "NoBalance",
      "type": "error"
    },
    {
      "inputs": [],
      "name": "PollAlreadyClosed",
      "type": "error"
    },
    {
      "inputs": [],
      "name": "PollNotOverYet",
      "type": "error"
    },
    {
      "inputs": [],
      "name": "WithdrawalFailed",
      "type": "error"
    },
    {
      "anonymous": false,
      "inputs": [
        {
          "indexed": true,
          "internalType": "address",
          "name": "owner",
          "type": "address"
        },
        {
          "indexed": true,
          "internalType": "address",
          "name": "operator",
          "type": "address"
        },
        {
          "indexed": false,
          "internalType": "bool",
          "name": "approved",
          "type": "bool"
        }
      ],
      "name": "ApprovalForAll",
      "type": "event"
    },
    {
      "anonymous": false,
      "inputs": [
        {
          "indexed": true,
          "internalType": "address",
          "name": "user",
          "type": "address"
        },
        {
          "indexed": true,
          "internalType": "address",
          "name": "newOwner",
          "type": "address"
        }
      ],
      "name": "OwnershipTransferred",
      "type": "event"
    },
    {
      "anonymous": false,
      "inputs": [
        {
          "indexed": true,
          "internalType": "address",
          "name": "operator",
          "type": "address"
        },
        {
          "indexed": true,
          "internalType": "address",
          "name": "from",
          "type": "address"
        },
        {
          "indexed": true,
          "internalType": "address",
          "name": "to",
          "type": "address"
        },
        {
          "indexed": false,
          "internalType": "uint256[]",
          "name": "ids",
          "type": "uint256[]"
        },
        {
          "indexed": false,
          "internalType": "uint256[]",
          "name": "amounts",
          "type": "uint256[]"
        }
      ],
      "name": "TransferBatch",
      "type": "event"
    },
    {
      "anonymous": false,
      "inputs": [
        {
          "indexed": true,
          "internalType": "address",
          "name": "operator",
          "type": "address"
        },
        {
          "indexed": true,
          "internalType": "address",
          "name": "from",
          "type": "address"
        },
        {
          "indexed": true,
          "internalType": "address",
          "name": "to",
          "type": "address"
        },
        {
          "indexed": false,
          "internalType": "uint256",
          "name": "id",
          "type": "uint256"
        },
        {
          "indexed": false,
          "internalType": "uint256",
          "name": "amount",
          "type": "uint256"
        }
      ],
      "name": "TransferSingle",
      "type": "event"
    },
    {
      "anonymous": false,
      "inputs": [
        {
          "indexed": false,
          "internalType": "string",
          "name": "value",
          "type": "string"
        },
        {
          "indexed": true,
          "internalType": "uint256",
          "name": "id",
          "type": "uint256"
        }
      ],
      "name": "URI",
      "type": "event"
    },
    {
      "inputs": [],
      "name": "VOTE_VALUE",
      "outputs": [
        {
          "internalType": "uint256",
          "name": "",
          "type": "uint256"
        }
      ],
      "stateMutability": "view",
      "type": "function"
    },
    {
      "inputs": [
        {
          "internalType": "uint256",
          "name": "_podcastId",
          "type": "uint256"
        },
        {
          "internalType": "string",
          "name": "_episodeUri",
          "type": "string"
        },
        {
          "internalType": "uint256",
          "name": "_collectibleValue",
          "type": "uint256"
        },
        {
          "internalType": "address",
          "name": "_prevGuest",
          "type": "address"
        }
      ],
      "name": "addEpisode",
      "outputs": [],
      "stateMutability": "nonpayable",
      "type": "function"
    },
    {
      "inputs": [
        {
          "internalType": "uint256",
          "name": "podcastId",
          "type": "uint256"
        },
        {
          "internalType": "address",
          "name": "guestAddress",
          "type": "address"
        },
        {
          "internalType": "uint256",
          "name": "_votes",
          "type": "uint256"
        }
      ],
      "name": "addVote",
      "outputs": [],
      "stateMutability": "payable",
      "type": "function"
    },
    {
      "inputs": [
        {
          "internalType": "address",
          "name": "",
          "type": "address"
        },
        {
          "internalType": "uint256",
          "name": "",
          "type": "uint256"
        }
      ],
      "name": "balanceOf",
      "outputs": [
        {
          "internalType": "uint256",
          "name": "",
          "type": "uint256"
        }
      ],
      "stateMutability": "view",
      "type": "function"
    },
    {
      "inputs": [
        {
          "internalType": "address[]",
          "name": "owners",
          "type": "address[]"
        },
        {
          "internalType": "uint256[]",
          "name": "ids",
          "type": "uint256[]"
        }
      ],
      "name": "balanceOfBatch",
      "outputs": [
        {
          "internalType": "uint256[]",
          "name": "balances",
          "type": "uint256[]"
        }
      ],
      "stateMutability": "view",
      "type": "function"
    },
    {
      "inputs": [
        {
          "internalType": "uint256",
          "name": "_podcastId",
          "type": "uint256"
        }
      ],
      "name": "closePoll",
      "outputs": [],
      "stateMutability": "nonpayable",
      "type": "function"
    },
    {
      "inputs": [
        {
          "internalType": "string",
          "name": "_name",
          "type": "string"
        },
        {
          "internalType": "string",
          "name": "_desc",
          "type": "string"
        },
        {
          "internalType": "string",
          "name": "_podMetadataUri",
          "type": "string"
        },
        {
          "internalType": "string",
          "name": "_topic",
          "type": "string"
        }
      ],
      "name": "createPodcast",
      "outputs": [],
      "stateMutability": "nonpayable",
      "type": "function"
    },
    {
      "inputs": [],
      "name": "defaultMetadataUri",
      "outputs": [
        {
          "internalType": "string",
          "name": "",
          "type": "string"
        }
      ],
      "stateMutability": "view",
      "type": "function"
    },
    {
      "inputs": [
        {
          "internalType": "uint256",
          "name": "",
          "type": "uint256"
        }
      ],
      "name": "episodeIdToEpisode",
      "outputs": [
        {
          "internalType": "uint256",
          "name": "podcastId",
          "type": "uint256"
        },
        {
          "internalType": "uint256",
          "name": "episodeId",
          "type": "uint256"
        },
        {
          "internalType": "uint256",
          "name": "timestamp",
          "type": "uint256"
        },
        {
          "internalType": "uint256",
          "name": "collectibleValue",
          "type": "uint256"
        },
        {
          "internalType": "address",
          "name": "host",
          "type": "address"
        },
        {
          "internalType": "address",
          "name": "guest",
          "type": "address"
        },
        {
          "internalType": "address",
          "name": "prevHost",
          "type": "address"
        },
        {
          "internalType": "address",
          "name": "prevGuest",
          "type": "address"
        },
        {
          "internalType": "address",
          "name": "nextGuest",
          "type": "address"
        },
        {
          "internalType": "address",
          "name": "nextHost",
          "type": "address"
        },
        {
          "internalType": "string",
          "name": "episodeUri",
          "type": "string"
        }
      ],
      "stateMutability": "view",
      "type": "function"
    },
    {
      "inputs": [
        {
          "internalType": "address",
          "name": "",
          "type": "address"
        }
      ],
      "name": "fundBalanceOf",
      "outputs": [
        {
          "internalType": "uint256",
          "name": "",
          "type": "uint256"
        }
      ],
      "stateMutability": "view",
      "type": "function"
    },
    {
      "inputs": [
        {
          "internalType": "uint256",
          "name": "_podcastId",
          "type": "uint256"
        },
        {
          "internalType": "address",
          "name": "_guestAddress",
          "type": "address"
        }
      ],
      "name": "getCurrentPollAddressVotes",
      "outputs": [
        {
          "internalType": "uint256",
          "name": "",
          "type": "uint256"
        }
      ],
      "stateMutability": "view",
      "type": "function"
    },
    {
      "inputs": [
        {
          "internalType": "uint256",
          "name": "_podcastId",
          "type": "uint256"
        }
      ],
      "name": "getCurrentPollInfo",
      "outputs": [
        {
          "internalType": "uint256",
          "name": "",
          "type": "uint256"
        },
        {
          "internalType": "bool",
          "name": "",
          "type": "bool"
        },
        {
          "internalType": "address",
          "name": "",
          "type": "address"
        },
        {
          "internalType": "uint256",
          "name": "",
          "type": "uint256"
        }
      ],
      "stateMutability": "view",
      "type": "function"
    },
    {
      "inputs": [
        {
          "internalType": "uint256",
          "name": "_podcastId",
          "type": "uint256"
        }
      ],
      "name": "getEpisodeIdList",
      "outputs": [
        {
          "internalType": "uint256[]",
          "name": "",
          "type": "uint256[]"
        }
      ],
      "stateMutability": "view",
      "type": "function"
    },
    {
      "inputs": [],
      "name": "getLatestTokenId",
      "outputs": [
        {
          "internalType": "uint256",
          "name": "",
          "type": "uint256"
        }
      ],
      "stateMutability": "view",
      "type": "function"
    },
    {
      "inputs": [],
      "name": "getPodcastIdList",
      "outputs": [
        {
          "internalType": "uint256[]",
          "name": "",
          "type": "uint256[]"
        }
      ],
      "stateMutability": "view",
      "type": "function"
    },
    {
      "inputs": [
        {
          "internalType": "address",
          "name": "",
          "type": "address"
        },
        {
          "internalType": "address",
          "name": "",
          "type": "address"
        }
      ],
      "name": "isApprovedForAll",
      "outputs": [
        {
          "internalType": "bool",
          "name": "",
          "type": "bool"
        }
      ],
      "stateMutability": "view",
      "type": "function"
    },
    {
      "inputs": [
        {
          "internalType": "uint256",
          "name": "_episodeId",
          "type": "uint256"
        },
        {
          "internalType": "uint256",
          "name": "_podcastId",
          "type": "uint256"
        }
      ],
      "name": "mintEpisodeCollectible",
      "outputs": [],
      "stateMutability": "payable",
      "type": "function"
    },
    {
      "inputs": [
        {
          "internalType": "uint256",
          "name": "_podcastId",
          "type": "uint256"
        },
        {
          "internalType": "address",
          "name": "guestAddress",
          "type": "address"
        }
      ],
      "name": "nominate",
      "outputs": [],
      "stateMutability": "payable",
      "type": "function"
    },
    {
      "inputs": [
        {
          "internalType": "address",
          "name": "",
          "type": "address"
        },
        {
          "internalType": "address",
          "name": "",
          "type": "address"
        },
        {
          "internalType": "uint256[]",
          "name": "",
          "type": "uint256[]"
        },
        {
          "internalType": "uint256[]",
          "name": "",
          "type": "uint256[]"
        },
        {
          "internalType": "bytes",
          "name": "",
          "type": "bytes"
        }
      ],
      "name": "onERC1155BatchReceived",
      "outputs": [
        {
          "internalType": "bytes4",
          "name": "",
          "type": "bytes4"
        }
      ],
      "stateMutability": "nonpayable",
      "type": "function"
    },
    {
      "inputs": [
        {
          "internalType": "address",
          "name": "",
          "type": "address"
        },
        {
          "internalType": "address",
          "name": "",
          "type": "address"
        },
        {
          "internalType": "uint256",
          "name": "",
          "type": "uint256"
        },
        {
          "internalType": "uint256",
          "name": "",
          "type": "uint256"
        },
        {
          "internalType": "bytes",
          "name": "",
          "type": "bytes"
        }
      ],
      "name": "onERC1155Received",
      "outputs": [
        {
          "internalType": "bytes4",
          "name": "",
          "type": "bytes4"
        }
      ],
      "stateMutability": "nonpayable",
      "type": "function"
    },
    {
      "inputs": [],
      "name": "owner",
      "outputs": [
        {
          "internalType": "address",
          "name": "",
          "type": "address"
        }
      ],
      "stateMutability": "view",
      "type": "function"
    },
    {
      "inputs": [
        {
          "internalType": "uint256",
          "name": "",
          "type": "uint256"
        }
      ],
      "name": "podcastIdList",
      "outputs": [
        {
          "internalType": "uint256",
          "name": "",
          "type": "uint256"
        }
      ],
      "stateMutability": "view",
      "type": "function"
    },
    {
      "inputs": [
        {
          "internalType": "uint256",
          "name": "",
          "type": "uint256"
        },
        {
          "internalType": "uint256",
          "name": "",
          "type": "uint256"
        }
      ],
      "name": "podcastIdToEpisodeIdList",
      "outputs": [
        {
          "internalType": "uint256",
          "name": "",
          "type": "uint256"
        }
      ],
      "stateMutability": "view",
      "type": "function"
    },
    {
      "inputs": [
        {
          "internalType": "uint256",
          "name": "",
          "type": "uint256"
        }
      ],
      "name": "podcastIdToPodcast",
      "outputs": [
        {
          "internalType": "uint256",
          "name": "podcastId",
          "type": "uint256"
        },
        {
          "internalType": "uint256",
          "name": "latestEpisodeId",
          "type": "uint256"
        },
        {
          "internalType": "uint256",
          "name": "balance",
          "type": "uint256"
        },
        {
          "internalType": "uint256",
          "name": "episodeSize",
          "type": "uint256"
        },
        {
          "internalType": "uint256",
          "name": "currentPollId",
          "type": "uint256"
        },
        {
          "internalType": "string",
          "name": "name",
          "type": "string"
        },
        {
          "internalType": "string",
          "name": "description",
          "type": "string"
        },
        {
          "internalType": "string",
          "name": "topic",
          "type": "string"
        },
        {
          "internalType": "string",
          "name": "metadataUri",
          "type": "string"
        },
        {
          "internalType": "address",
          "name": "host",
          "type": "address"
        },
        {
          "internalType": "address",
          "name": "guest",
          "type": "address"
        },
        {
          "components": [
            {
              "internalType": "uint256",
              "name": "hostRevenueShare",
              "type": "uint256"
            },
            {
              "internalType": "uint256",
              "name": "guestRevenueShare",
              "type": "uint256"
            },
            {
              "internalType": "uint256",
              "name": "publicGoodsShare",
              "type": "uint256"
            }
          ],
          "internalType": "struct Pod.RevenueShare",
          "name": "revenueShares",
          "type": "tuple"
        }
      ],
      "stateMutability": "view",
      "type": "function"
    },
    {
      "inputs": [
        {
          "internalType": "string",
          "name": "",
          "type": "string"
        }
      ],
      "name": "podcastNameToId",
      "outputs": [
        {
          "internalType": "uint256",
          "name": "",
          "type": "uint256"
        }
      ],
      "stateMutability": "view",
      "type": "function"
    },
    {
      "inputs": [
        {
          "internalType": "uint256",
          "name": "",
          "type": "uint256"
        }
      ],
      "name": "pollIdToPoll",
      "outputs": [
        {
          "internalType": "uint256",
          "name": "podcastId",
          "type": "uint256"
        },
        {
          "internalType": "uint256",
          "name": "endsAt",
          "type": "uint256"
        },
        {
          "internalType": "bool",
          "name": "isPollOpen",
          "type": "bool"
        },
        {
          "internalType": "uint256",
          "name": "highestVoteCount",
          "type": "uint256"
        },
        {
          "internalType": "address",
          "name": "currentWinningAddress",
          "type": "address"
        }
      ],
      "stateMutability": "view",
      "type": "function"
    },
    {
      "inputs": [
        {
          "internalType": "address",
          "name": "from",
          "type": "address"
        },
        {
          "internalType": "address",
          "name": "to",
          "type": "address"
        },
        {
          "internalType": "uint256[]",
          "name": "ids",
          "type": "uint256[]"
        },
        {
          "internalType": "uint256[]",
          "name": "amounts",
          "type": "uint256[]"
        },
        {
          "internalType": "bytes",
          "name": "data",
          "type": "bytes"
        }
      ],
      "name": "safeBatchTransferFrom",
      "outputs": [],
      "stateMutability": "nonpayable",
      "type": "function"
    },
    {
      "inputs": [
        {
          "internalType": "address",
          "name": "from",
          "type": "address"
        },
        {
          "internalType": "address",
          "name": "to",
          "type": "address"
        },
        {
          "internalType": "uint256",
          "name": "id",
          "type": "uint256"
        },
        {
          "internalType": "uint256",
          "name": "amount",
          "type": "uint256"
        },
        {
          "internalType": "bytes",
          "name": "data",
          "type": "bytes"
        }
      ],
      "name": "safeTransferFrom",
      "outputs": [],
      "stateMutability": "nonpayable",
      "type": "function"
    },
    {
      "inputs": [
        {
          "internalType": "address",
          "name": "operator",
          "type": "address"
        },
        {
          "internalType": "bool",
          "name": "approved",
          "type": "bool"
        }
      ],
      "name": "setApprovalForAll",
      "outputs": [],
      "stateMutability": "nonpayable",
      "type": "function"
    },
    {
      "inputs": [
        {
          "internalType": "uint256",
          "name": "_podcastId",
          "type": "uint256"
        },
        {
          "internalType": "uint256",
          "name": "hostRevenueShare",
          "type": "uint256"
        },
        {
          "internalType": "uint256",
          "name": "guestRevenueShare",
          "type": "uint256"
        },
        {
          "internalType": "uint256",
          "name": "publicGoodsShare",
          "type": "uint256"
        }
      ],
      "name": "setRevenueShare",
      "outputs": [],
      "stateMutability": "nonpayable",
      "type": "function"
    },
    {
      "inputs": [
        {
          "internalType": "bytes4",
          "name": "interfaceId",
          "type": "bytes4"
        }
      ],
      "name": "supportsInterface",
      "outputs": [
        {
          "internalType": "bool",
          "name": "",
          "type": "bool"
        }
      ],
      "stateMutability": "view",
      "type": "function"
    },
    {
      "inputs": [
        {
          "internalType": "uint256",
          "name": "",
          "type": "uint256"
        }
      ],
      "name": "tokenIdToMetadataUri",
      "outputs": [
        {
          "internalType": "string",
          "name": "",
          "type": "string"
        }
      ],
      "stateMutability": "view",
      "type": "function"
    },
    {
      "inputs": [
        {
          "internalType": "address",
          "name": "newOwner",
          "type": "address"
        }
      ],
      "name": "transferOwnership",
      "outputs": [],
      "stateMutability": "nonpayable",
      "type": "function"
    },
    {
      "inputs": [
        {
          "internalType": "uint256",
          "name": "_tokenId",
          "type": "uint256"
        }
      ],
      "name": "uri",
      "outputs": [
        {
          "internalType": "string",
          "name": "",
          "type": "string"
        }
      ],
      "stateMutability": "view",
      "type": "function"
    },
    {
      "inputs": [],
      "name": "withdrawFunds",
      "outputs": [],
      "stateMutability": "payable",
      "type": "function"
    },
    {
      "inputs": [
        {
          "internalType": "address",
          "name": "_publicGoodsAddress",
          "type": "address"
        }
      ],
      "name": "withdrawPublicGoodsFunds",
      "outputs": [],
      "stateMutability": "payable",
      "type": "function"
    }
  ],
  "bytecode": {
    "object": "0x60806040523480156200001157600080fd5b50604051620032ee380380620032ee833981016040819052620000349162000104565b600280546001600160a01b0319163390811790915560405181906000907f8be0079c531659141344cd1fd0a4f28419497f9722a3daafe3b4186f6b6457e0908290a35060036200008582826200024b565b5060007f6bb7ff708619ba0610cba295a58592e0451dee2622938c8755667688daf3529b82604051620000b9919062000317565b60405180910390a2506200034c565b634e487b7160e01b600052604160045260246000fd5b60005b83811015620000fb578181015183820152602001620000e1565b50506000910152565b6000602082840312156200011757600080fd5b81516001600160401b03808211156200012f57600080fd5b818401915084601f8301126200014457600080fd5b815181811115620001595762000159620000c8565b604051601f8201601f19908116603f01168101908382118183101715620001845762000184620000c8565b816040528281528760208487010111156200019e57600080fd5b620001b1836020830160208801620000de565b979650505050505050565b600181811c90821680620001d157607f821691505b602082108103620001f257634e487b7160e01b600052602260045260246000fd5b50919050565b601f8211156200024657600081815260208120601f850160051c81016020861015620002215750805b601f850160051c820191505b8181101562000242578281556001016200022d565b5050505b505050565b81516001600160401b03811115620002675762000267620000c8565b6200027f81620002788454620001bc565b84620001f8565b602080601f831160018114620002b757600084156200029e5750858301515b600019600386901b1c1916600185901b17855562000242565b600085815260208120601f198616915b82811015620002e857888601518255948401946001909101908401620002c7565b5085821015620003075787850151600019600388901b60f8161c191681555b5050505050600190811b01905550565b602081526000825180602084015262000338816040850160208701620000de565b601f01601f19169190910160400192915050565b612f92806200035c6000396000f3fe60806040526004361061020e5760003560e01c80638da5cb5b11610118578063d54ac725116100a0578063e9997c521161006f578063e9997c5214610783578063eaebf026146107a3578063f23a6e61146107db578063f242432a14610808578063f2fde38b1461082857600080fd5b8063d54ac72514610680578063de2073af14610693578063dea053c3146106b3578063e985e9c51461074857600080fd5b8063bc197c81116100e7578063bc197c8114610577578063bd9c0597146105bf578063c8159ee8146105df578063c893158414610633578063d35e7efc1461065357600080fd5b80638da5cb5b146104ec5780639534e63714610524578063a22cb46514610544578063a31799751461056457600080fd5b80632caa84fd1161019b5780634e1273f41161016a5780634e1273f41461044c578063555055f51461046c5780636184986d1461047f5780637f5d84411461049f57806384eaa35d146104b457600080fd5b80632caa84fd146103df5780632eb2c2d6146103ff578063312cea201461041f57806337bf0cf91461043957600080fd5b806309ca5dc8116101e257806309ca5dc8146102cf5780630e89341c146103065780632425795a1461033357806324600fc3146103c257806325d112a9146103ca57600080fd5b8062fdd58e1461021357806301ffc9a71461025b578063077526c51461028b57806309160063146102ad575b600080fd5b34801561021f57600080fd5b5061024861022e366004612332565b600060208181529281526040808220909352908152205481565b6040519081526020015b60405180910390f35b34801561026757600080fd5b5061027b610276366004612372565b610848565b6040519015158152602001610252565b34801561029757600080fd5b506102a061089a565b6040516102529190612396565b3480156102b957600080fd5b506102cd6102c836600461247d565b6108f2565b005b3480156102db57600080fd5b506102ef6102ea36600461252a565b610a0a565b6040516102529b9a99989796959493929190612593565b34801561031257600080fd5b5061032661032136600461252a565b610b03565b6040516102529190612610565b34801561033f57600080fd5b5061038a61034e36600461252a565b600960205260009081526040902080546001820154600283015460038401546004909401549293919260ff90911691906001600160a01b031685565b6040516102529594939291909485526020850193909352901515604084015260608301526001600160a01b0316608082015260a00190565b6102cd610bd2565b3480156103d657600080fd5b50600454610248565b3480156103eb57600080fd5b506102cd6103fa366004612623565b610c77565b34801561040b57600080fd5b506102cd61041a366004612712565b61106e565b34801561042b57600080fd5b50610248655af3107a400081565b6102cd6104473660046127cd565b611316565b34801561045857600080fd5b506102a06104673660046127e8565b6113d6565b6102cd61047a366004612854565b61150b565b34801561048b57600080fd5b5061024861049a366004612889565b6116b2565b3480156104ab57600080fd5b506103266116e3565b3480156104c057600080fd5b506104d46104cf36600461252a565b611771565b6040516102529c9b9a999897969594939291906128ab565b3480156104f857600080fd5b5060025461050c906001600160a01b031681565b6040516001600160a01b039091168152602001610252565b34801561053057600080fd5b506102cd61053f36600461252a565b611a1f565b34801561055057600080fd5b506102cd61055f36600461296b565b611acb565b6102cd610572366004612889565b611b37565b34801561058357600080fd5b506105a6610592366004612712565b63bc197c8160e01b98975050505050505050565b6040516001600160e01b03199091168152602001610252565b3480156105cb57600080fd5b506102a06105da36600461252a565b611c97565b3480156105eb57600080fd5b506102486105fa3660046129a7565b6000828152600760209081526040808320600401548352600982528083206001600160a01b038516845260050190915290205492915050565b34801561063f57600080fd5b5061024861064e36600461252a565b611cf8565b34801561065f57600080fd5b5061024861066e3660046127cd565b600c6020526000908152604090205481565b6102cd61068e3660046129a7565b611d19565b34801561069f57600080fd5b506102cd6106ae3660046129d3565b611ed2565b3480156106bf57600080fd5b506107196106ce36600461252a565b6000908152600760209081526040808320600490810154845260099092529091206001810154600282015492820154600390920154909360ff909316926001600160a01b0390921691565b604051610252949392919093845291151560208401526001600160a01b03166040830152606082015260800190565b34801561075457600080fd5b5061027b610763366004612a05565b600160209081526000928352604080842090915290825290205460ff1681565b34801561078f57600080fd5b5061032661079e36600461252a565b611f2e565b3480156107af57600080fd5b506102486107be366004612a2f565b8051602081830181018051600b8252928201919093012091525481565b3480156107e757600080fd5b506105a66107f6366004612a6c565b63f23a6e6160e01b9695505050505050565b34801561081457600080fd5b506102cd610823366004612a6c565b611f47565b34801561083457600080fd5b506102cd6108433660046127cd565b612139565b60006301ffc9a760e01b6001600160e01b0319831614806108795750636cdb3d1360e11b6001600160e01b03198316145b8061089457506303a24d0760e21b6001600160e01b03198316145b92915050565b6060600d8054806020026020016040519081016040528092919081815260200182805480156108e857602002820191906000526020600020905b8154815260200190600101908083116108d4575b5050505050905090565b6001600460008282546109059190612afa565b90915550506004805460009081526007602052604090206009810180546001600160a01b0319163317905590548155600881016109428482612b92565b50600581016109518682612b92565b50600681016109608582612b92565b506007810161096f8382612b92565b506004546000908152600a6020526040902061098b8482612b92565b50600454600b8660405161099f9190612c52565b90815260408051918290036020908101832093909355600454600d80546001818101835560009283527fd7b6990105719101dabeb77144f2a3385c8033acd3af97e9423a695e81ad1eb5909101839055948401909252908252610a039233926121ce565b5050505050565b600860208190526000918252604090912080546001820154600283015460038401546004850154600586015460068701546007880154988801546009890154600a8a018054999b989a979996986001600160a01b03968716989587169794871696908116959381169492169291610a8090612b0d565b80601f0160208091040260200160405190810160405280929190818152602001828054610aac90612b0d565b8015610af95780601f10610ace57610100808354040283529160200191610af9565b820191906000526020600020905b815481529060010190602001808311610adc57829003601f168201915b505050505090508b565b6000818152600a60205260409020805460609190610b2090612b0d565b159050610bc5576000828152600a602052604090208054610b4090612b0d565b80601f0160208091040260200160405190810160405280929190818152602001828054610b6c90612b0d565b8015610bb95780601f10610b8e57610100808354040283529160200191610bb9565b820191906000526020600020905b815481529060010190602001808311610b9c57829003601f168201915b50505050509050919050565b60038054610b4090612b0d565b336000908152600c6020526040902054610bff57604051636165515360e11b815260040160405180910390fd5b336000818152600c60205260408082205490519192918381818185875af1925050503d8060008114610c4d576040519150601f19603f3d011682016040523d82523d6000602084013e610c52565b606091505b5050905080610c74576040516327fcd9d160e01b815260040160405180910390fd5b50565b6000848152600760205260409020600901546001600160a01b03163314610cb157604051638a3a738f60e01b815260040160405180910390fd5b600160046000828254610cc49190612afa565b909155505060045460009081526008602090815260408083208784526007909252822060030180549192600192610cfc908490612afa565b92505081905550600160056000828254610d169190612afa565b90915550508481556004546001820155600a8101610d348582612b92565b506007600086815260200190815260200160002060090160009054906101000a90046001600160a01b03168160040160006101000a8154816001600160a01b0302191690836001600160a01b031602179055506007600086815260200190815260200160002060090160009054906101000a90046001600160a01b03168160060160006101000a8154816001600160a01b0302191690836001600160a01b03160217905550818160070160006101000a8154816001600160a01b0302191690836001600160a01b0316021790555042816002018190555082816003018190555060045460076000878152602001908152602001600020600101819055508060076000878152602001908152602001600020600b0160006004548152602001908152602001600020600082015481600001556001820154816001015560028201548160020155600382015481600301556004820160009054906101000a90046001600160a01b03168160040160006101000a8154816001600160a01b0302191690836001600160a01b031602179055506005820160009054906101000a90046001600160a01b03168160050160006101000a8154816001600160a01b0302191690836001600160a01b031602179055506006820160009054906101000a90046001600160a01b03168160060160006101000a8154816001600160a01b0302191690836001600160a01b031602179055506007820160009054906101000a90046001600160a01b03168160070160006101000a8154816001600160a01b0302191690836001600160a01b031602179055506008820160009054906101000a90046001600160a01b03168160080160006101000a8154816001600160a01b0302191690836001600160a01b031602179055506009820160009054906101000a90046001600160a01b03168160090160006101000a8154816001600160a01b0302191690836001600160a01b03160217905550600a820181600a0190816110179190612c6e565b50506005546000878152600760209081526040808320600490810194909455600e8252808320845481546001810183559185528385209091015592548252600a90522090506110668582612b92565b505050505050565b8483146110b45760405162461bcd60e51b815260206004820152600f60248201526e0988a9c8ea890be9a92a69a82a8869608b1b60448201526064015b60405180910390fd5b336001600160a01b03891614806110ee57506001600160a01b038816600090815260016020908152604080832033845290915290205460ff165b61112b5760405162461bcd60e51b815260206004820152600e60248201526d1393d517d055551213d49256915160921b60448201526064016110ab565b60008060005b878110156111e65788888281811061114b5761114b612d41565b90506020020135925086868281811061116657611166612d41565b6001600160a01b038e16600090815260208181526040808320898452825282208054939091029490940135955085939250906111a3908490612d57565b90915550506001600160a01b038a16600090815260208181526040808320868452909152812080548492906111d9908490612afa565b9091555050600101611131565b50886001600160a01b03168a6001600160a01b0316336001600160a01b03167f4a39dc06d4c0dbc64b70af90fd698a233a518aa5d07e595d983b8c0526c8f7fb8b8b8b8b60405161123a9493929190612d9c565b60405180910390a46001600160a01b0389163b156112e15760405163bc197c8160e01b808252906001600160a01b038b169063bc197c819061128e9033908f908e908e908e908e908e908e90600401612df7565b6020604051808303816000875af11580156112ad573d6000803e3d6000fd5b505050506040513d601f19601f820116820180604052508101906112d19190612e5b565b6001600160e01b031916146112ee565b6001600160a01b03891615155b61130a5760405162461bcd60e51b81526004016110ab90612e78565b50505050505050505050565b6002546001600160a01b0316331461135f5760405162461bcd60e51b815260206004820152600c60248201526b15539055551213d49256915160a21b60448201526064016110ab565b6006546040516000916001600160a01b038416918381818185875af1925050503d80600081146113ab576040519150601f19603f3d011682016040523d82523d6000602084013e6113b0565b606091505b50509050806113d2576040516327fcd9d160e01b815260040160405180910390fd5b5050565b60608382146114195760405162461bcd60e51b815260206004820152600f60248201526e0988a9c8ea890be9a92a69a82a8869608b1b60448201526064016110ab565b8367ffffffffffffffff811115611432576114326123da565b60405190808252806020026020018201604052801561145b578160200160208202803683370190505b50905060005b848110156115025760008087878481811061147e5761147e612d41565b905060200201602081019061149391906127cd565b6001600160a01b03166001600160a01b0316815260200190815260200160002060008585848181106114c7576114c7612d41565b905060200201358152602001908152602001600020548282815181106114ef576114ef612d41565b6020908102919091010152600101611461565b50949350505050565b600061151d655af3107a400083612ea2565b905080341461153f5760405163356680b760e01b815260040160405180910390fd5b6000848152600760205260409020600901546001600160a01b039081169084160361157d5760405163a86fe72f60e01b815260040160405180910390fd5b6000848152600760209081526040808320600401548084526009909252822060028101549192909160ff16151590036115c957604051639b22ddeb60e01b815260040160405180910390fd5b6001600160a01b038516600090815260068201602052604081205460ff16151590036116085760405163e7ce584d60e01b815260040160405180910390fd5b6001600160a01b038516600090815260058201602052604081208054869290611632908490612afa565b909155505060038101546001600160a01b03861660009081526005830160205260409020541115611693576001600160a01b038516600081815260058301602052604090205460038301556004820180546001600160a01b03191690911790555b82600660008282546116a59190612afa565b9091555050505050505050565b600e60205281600052604060002081815481106116ce57600080fd5b90600052602060002001600091509150505481565b600380546116f090612b0d565b80601f016020809104026020016040519081016040528092919081815260200182805461171c90612b0d565b80156117695780601f1061173e57610100808354040283529160200191611769565b820191906000526020600020905b81548152906001019060200180831161174c57829003601f168201915b505050505081565b60076020528060005260406000206000915090508060000154908060010154908060020154908060030154908060040154908060050180546117b290612b0d565b80601f01602080910402602001604051908101604052809291908181526020018280546117de90612b0d565b801561182b5780601f106118005761010080835404028352916020019161182b565b820191906000526020600020905b81548152906001019060200180831161180e57829003601f168201915b50505050509080600601805461184090612b0d565b80601f016020809104026020016040519081016040528092919081815260200182805461186c90612b0d565b80156118b95780601f1061188e576101008083540402835291602001916118b9565b820191906000526020600020905b81548152906001019060200180831161189c57829003601f168201915b5050505050908060070180546118ce90612b0d565b80601f01602080910402602001604051908101604052809291908181526020018280546118fa90612b0d565b80156119475780601f1061191c57610100808354040283529160200191611947565b820191906000526020600020905b81548152906001019060200180831161192a57829003601f168201915b50505050509080600801805461195c90612b0d565b80601f016020809104026020016040519081016040528092919081815260200182805461198890612b0d565b80156119d55780601f106119aa576101008083540402835291602001916119d5565b820191906000526020600020905b8154815290600101906020018083116119b857829003601f168201915b5050506009840154600a85015460408051606081018252600c8801548152600d8801546020820152600e909701549087015293946001600160a01b0391821694909116925090508c565b600081815260076020908152604080832060040154808452600990925290912060018101544210611a63576040516307c22c8960e01b815260040160405180910390fd5b600281015460ff16611a8857604051639b22ddeb60e01b815260040160405180910390fd5b60028101805460ff1916905560040154600092835260076020526040909220600a0180546001600160a01b0319166001600160a01b039093169290921790915550565b3360008181526001602090815260408083206001600160a01b03871680855290835292819020805460ff191686151590811790915590519081529192917f17307eab39ab6107e8899845ad3d59bd9653f200f220920489ca2b5937696c31910160405180910390a35050565b6000828152600860205260409020600301543414611b685760405163356680b760e01b815260040160405180910390fd5b6000818152600760205260408120600e0154611b8690606490612eb9565b611b909034612ea2565b6000838152600760205260408120600c015491925090611bb290606490612eb9565b611bbc9034612ea2565b6000848152600760205260408120600d015491925090611bde90606490612eb9565b611be89034612ea2565b90508260066000828254611bfc9190612afa565b90915550506000848152600760209081526040808320600901546001600160a01b03168352600c90915281208054849290611c38908490612afa565b90915550506000858152600860209081526040808320600501546001600160a01b03168352600c90915281208054839290611c74908490612afa565b92505081905550610a0333866001604051806020016040528060008152506121ce565b6000818152600e6020908152604091829020805483518184028101840190945280845260609392830182828015610bb957602002820191906000526020600020905b815481526020019060010190808311611cd95750505050509050919050565b600d8181548110611d0857600080fd5b600091825260209091200154905081565b655af3107a40003414611d3f5760405163356680b760e01b815260040160405180910390fd5b6000828152600760205260409020600901546001600160a01b0390811690821603611d7d5760405163a86fe72f60e01b815260040160405180910390fd5b6000828152600760209081526040808320600401548084526009909252822060028101549192909160ff1615159003611dc957604051639b22ddeb60e01b815260040160405180910390fd5b6001600160a01b038316600090815260068201602052604090205460ff161515600103611e0957604051632bef896960e01b815260040160405180910390fd5b6001600160a01b03831660009081526006820160209081526040808320805460ff19166001908117909155600585019092528220805491929091611e4e908490612afa565b909155505060038101546001600160a01b03841660009081526005830160205260409020541115611eaf576001600160a01b038316600081815260058301602052604090205460038301556004820180546001600160a01b03191690911790555b655af3107a400060066000828254611ec79190612afa565b909155505050505050565b6000848152600760205260409020600901546001600160a01b03163314611f0c57604051638a3a738f60e01b815260040160405180910390fd5b600093845260076020526040909320600c810192909255600d820155600e0155565b600a60205260009081526040902080546116f090612b0d565b336001600160a01b0387161480611f8157506001600160a01b038616600090815260016020908152604080832033845290915290205460ff165b611fbe5760405162461bcd60e51b815260206004820152600e60248201526d1393d517d055551213d49256915160921b60448201526064016110ab565b6001600160a01b03861660009081526020818152604080832087845290915281208054859290611fef908490612d57565b90915550506001600160a01b03851660009081526020818152604080832087845290915281208054859290612025908490612afa565b909155505060408051858152602081018590526001600160a01b03808816929089169133917fc3d58168c5ae7397731d063d5bbf3d657854427343f4c083240f7aacaa2d0f62910160405180910390a46001600160a01b0385163b156121105760405163f23a6e6160e01b808252906001600160a01b0387169063f23a6e61906120bd9033908b908a908a908a908a90600401612edb565b6020604051808303816000875af11580156120dc573d6000803e3d6000fd5b505050506040513d601f19601f820116820180604052508101906121009190612e5b565b6001600160e01b0319161461211d565b6001600160a01b03851615155b6110665760405162461bcd60e51b81526004016110ab90612e78565b6002546001600160a01b031633146121825760405162461bcd60e51b815260206004820152600c60248201526b15539055551213d49256915160a21b60448201526064016110ab565b600280546001600160a01b0319166001600160a01b03831690811790915560405133907f8be0079c531659141344cd1fd0a4f28419497f9722a3daafe3b4186f6b6457e090600090a350565b6001600160a01b038416600090815260208181526040808320868452909152812080548492906121ff908490612afa565b909155505060408051848152602081018490526001600160a01b0386169160009133917fc3d58168c5ae7397731d063d5bbf3d657854427343f4c083240f7aacaa2d0f62910160405180910390a46001600160a01b0384163b156122e75760405163f23a6e6160e01b808252906001600160a01b0386169063f23a6e6190612294903390600090899089908990600401612f22565b6020604051808303816000875af11580156122b3573d6000803e3d6000fd5b505050506040513d601f19601f820116820180604052508101906122d79190612e5b565b6001600160e01b031916146122f4565b6001600160a01b03841615155b6123105760405162461bcd60e51b81526004016110ab90612e78565b50505050565b80356001600160a01b038116811461232d57600080fd5b919050565b6000806040838503121561234557600080fd5b61234e83612316565b946020939093013593505050565b6001600160e01b031981168114610c7457600080fd5b60006020828403121561238457600080fd5b813561238f8161235c565b9392505050565b6020808252825182820181905260009190848201906040850190845b818110156123ce578351835292840192918401916001016123b2565b50909695505050505050565b634e487b7160e01b600052604160045260246000fd5b600082601f83011261240157600080fd5b813567ffffffffffffffff8082111561241c5761241c6123da565b604051601f8301601f19908116603f01168101908282118183101715612444576124446123da565b8160405283815286602085880101111561245d57600080fd5b836020870160208301376000602085830101528094505050505092915050565b6000806000806080858703121561249357600080fd5b843567ffffffffffffffff808211156124ab57600080fd5b6124b7888389016123f0565b955060208701359150808211156124cd57600080fd5b6124d9888389016123f0565b945060408701359150808211156124ef57600080fd5b6124fb888389016123f0565b9350606087013591508082111561251157600080fd5b5061251e878288016123f0565b91505092959194509250565b60006020828403121561253c57600080fd5b5035919050565b60005b8381101561255e578181015183820152602001612546565b50506000910152565b6000815180845261257f816020860160208601612543565b601f01601f19169290920160200192915050565b8b8152602081018b9052604081018a9052606081018990526001600160a01b03888116608083015287811660a083015286811660c083015285811660e0830152848116610100830152831661012082015261016061014082018190526000906125fe83820185612567565b9e9d5050505050505050505050505050565b60208152600061238f6020830184612567565b6000806000806080858703121561263957600080fd5b84359350602085013567ffffffffffffffff81111561265757600080fd5b612663878288016123f0565b9350506040850135915061267960608601612316565b905092959194509250565b60008083601f84011261269657600080fd5b50813567ffffffffffffffff8111156126ae57600080fd5b6020830191508360208260051b85010111156126c957600080fd5b9250929050565b60008083601f8401126126e257600080fd5b50813567ffffffffffffffff8111156126fa57600080fd5b6020830191508360208285010111156126c957600080fd5b60008060008060008060008060a0898b03121561272e57600080fd5b61273789612316565b975061274560208a01612316565b9650604089013567ffffffffffffffff8082111561276257600080fd5b61276e8c838d01612684565b909850965060608b013591508082111561278757600080fd5b6127938c838d01612684565b909650945060808b01359150808211156127ac57600080fd5b506127b98b828c016126d0565b999c989b5096995094979396929594505050565b6000602082840312156127df57600080fd5b61238f82612316565b600080600080604085870312156127fe57600080fd5b843567ffffffffffffffff8082111561281657600080fd5b61282288838901612684565b9096509450602087013591508082111561283b57600080fd5b5061284887828801612684565b95989497509550505050565b60008060006060848603121561286957600080fd5b8335925061287960208501612316565b9150604084013590509250925092565b6000806040838503121561289c57600080fd5b50508035926020909101359150565b60006101c08e83528d60208401528c60408401528b60608401528a60808401528060a08401526128dd8184018b612567565b905082810360c08401526128f1818a612567565b905082810360e08401526129058189612567565b905082810361010084015261291a8188612567565b6001600160a01b0387811661012086015286166101408501528451610160850152602085015161018085015260408501516101a0850152915061295a9050565b9d9c50505050505050505050505050565b6000806040838503121561297e57600080fd5b61298783612316565b91506020830135801515811461299c57600080fd5b809150509250929050565b600080604083850312156129ba57600080fd5b823591506129ca60208401612316565b90509250929050565b600080600080608085870312156129e957600080fd5b5050823594602084013594506040840135936060013592509050565b60008060408385031215612a1857600080fd5b612a2183612316565b91506129ca60208401612316565b600060208284031215612a4157600080fd5b813567ffffffffffffffff811115612a5857600080fd5b612a64848285016123f0565b949350505050565b60008060008060008060a08789031215612a8557600080fd5b612a8e87612316565b9550612a9c60208801612316565b94506040870135935060608701359250608087013567ffffffffffffffff811115612ac657600080fd5b612ad289828a016126d0565b979a9699509497509295939492505050565b634e487b7160e01b600052601160045260246000fd5b8082018082111561089457610894612ae4565b600181811c90821680612b2157607f821691505b602082108103612b4157634e487b7160e01b600052602260045260246000fd5b50919050565b601f821115612b8d57600081815260208120601f850160051c81016020861015612b6e5750805b601f850160051c820191505b8181101561106657828155600101612b7a565b505050565b815167ffffffffffffffff811115612bac57612bac6123da565b612bc081612bba8454612b0d565b84612b47565b602080601f831160018114612bf55760008415612bdd5750858301515b600019600386901b1c1916600185901b178555611066565b600085815260208120601f198616915b82811015612c2457888601518255948401946001909101908401612c05565b5085821015612c425787850151600019600388901b60f8161c191681555b5050505050600190811b01905550565b60008251612c64818460208701612543565b9190910192915050565b818103612c79575050565b612c838254612b0d565b67ffffffffffffffff811115612c9b57612c9b6123da565b612ca981612bba8454612b0d565b6000601f821160018114612cdd5760008315612cc55750848201545b600019600385901b1c1916600184901b178455610a03565b600085815260209020601f19841690600086815260209020845b83811015612d175782860154825560019586019590910190602001612cf7565b5085831015612c425793015460001960f8600387901b161c19169092555050600190811b01905550565b634e487b7160e01b600052603260045260246000fd5b8181038181111561089457610894612ae4565b81835260006001600160fb1b03831115612d8357600080fd5b8260051b80836020870137939093016020019392505050565b604081526000612db0604083018688612d6a565b8281036020840152612dc3818587612d6a565b979650505050505050565b81835281816020850137506000828201602090810191909152601f909101601f19169091010190565b6001600160a01b0389811682528816602082015260a060408201819052600090612e24908301888a612d6a565b8281036060840152612e37818789612d6a565b90508281036080840152612e4c818587612dce565b9b9a5050505050505050505050565b600060208284031215612e6d57600080fd5b815161238f8161235c565b60208082526010908201526f155394d0519157d49150d2541251539560821b604082015260600190565b808202811582820484141761089457610894612ae4565b600082612ed657634e487b7160e01b600052601260045260246000fd5b500490565b6001600160a01b03878116825286166020820152604081018590526060810184905260a060808201819052600090612f169083018486612dce565b98975050505050505050565b6001600160a01b03868116825285166020820152604081018490526060810183905260a060808201819052600090612dc39083018461256756fea2646970667358221220cad35dbf367061b7209b8909ec7f11e42b8d725dfd6173f65a4bfdb1e644107a64736f6c63430008110033",
    "linkReferences": {}
  },
  "methodIdentifiers": {
    "VOTE_VALUE()": "312cea20",
    "addEpisode(uint256,string,uint256,address)": "2caa84fd",
    "addVote(uint256,address,uint256)": "555055f5",
    "balanceOf(address,uint256)": "00fdd58e",
    "balanceOfBatch(address[],uint256[])": "4e1273f4",
    "closePoll(uint256)": "9534e637",
    "createPodcast(string,string,string,string)": "09160063",
    "defaultMetadataUri()": "7f5d8441",
    "episodeIdToEpisode(uint256)": "09ca5dc8",
    "fundBalanceOf(address)": "d35e7efc",
    "getCurrentPollAddressVotes(uint256,address)": "c8159ee8",
    "getCurrentPollInfo(uint256)": "dea053c3",
    "getEpisodeIdList(uint256)": "bd9c0597",
    "getLatestTokenId()": "25d112a9",
    "getPodcastIdList()": "077526c5",
    "isApprovedForAll(address,address)": "e985e9c5",
    "mintEpisodeCollectible(uint256,uint256)": "a3179975",
    "nominate(uint256,address)": "d54ac725",
    "onERC1155BatchReceived(address,address,uint256[],uint256[],bytes)": "bc197c81",
    "onERC1155Received(address,address,uint256,uint256,bytes)": "f23a6e61",
    "owner()": "8da5cb5b",
    "podcastIdList(uint256)": "c8931584",
    "podcastIdToEpisodeIdList(uint256,uint256)": "6184986d",
    "podcastIdToPodcast(uint256)": "84eaa35d",
    "podcastNameToId(string)": "eaebf026",
    "pollIdToPoll(uint256)": "2425795a",
    "safeBatchTransferFrom(address,address,uint256[],uint256[],bytes)": "2eb2c2d6",
    "safeTransferFrom(address,address,uint256,uint256,bytes)": "f242432a",
    "setApprovalForAll(address,bool)": "a22cb465",
    "setRevenueShare(uint256,uint256,uint256,uint256)": "de2073af",
    "supportsInterface(bytes4)": "01ffc9a7",
    "tokenIdToMetadataUri(uint256)": "e9997c52",
    "transferOwnership(address)": "f2fde38b",
    "uri(uint256)": "0e89341c",
    "withdrawFunds()": "24600fc3",
    "withdrawPublicGoodsFunds(address)": "37bf0cf9"
  },
  "id": 17
}