{
  "abi": [
    {
      "inputs": [
        {
          "internalType": "string",
          "name": "_defaultMetadataUri",
          "type": "string"
        }
      ],
      "stateMutability": "nonpayable",
      "type": "constructor"
    },
    {
      "inputs": [],
      "name": "GuestCantBeHost",
      "type": "error"
    },
    {
      "inputs": [],
      "name": "InsufficientFunds",
      "type": "error"
    },
    {
      "inputs": [],
      "name": "InvalidHost",
      "type": "error"
    },
    {
      "inputs": [],
      "name": "WithdrawalFailed",
      "type": "error"
    },
    {
      "anonymous": false,
      "inputs": [
        {
          "indexed": true,
          "internalType": "address",
          "name": "owner",
          "type": "address"
        },
        {
          "indexed": true,
          "internalType": "address",
          "name": "operator",
          "type": "address"
        },
        {
          "indexed": false,
          "internalType": "bool",
          "name": "approved",
          "type": "bool"
        }
      ],
      "name": "ApprovalForAll",
      "type": "event"
    },
    {
      "anonymous": false,
      "inputs": [
        {
          "indexed": false,
          "internalType": "uint256",
          "name": "podcastId",
          "type": "uint256"
        },
        {
          "indexed": false,
          "internalType": "uint256",
          "name": "episodeId",
          "type": "uint256"
        },
        {
          "indexed": false,
          "internalType": "string",
          "name": "episodeUri",
          "type": "string"
        },
        {
          "indexed": false,
          "internalType": "address",
          "name": "host",
          "type": "address"
        },
        {
          "indexed": false,
          "internalType": "address",
          "name": "guest",
          "type": "address"
        },
        {
          "indexed": false,
          "internalType": "uint256",
          "name": "timestamp",
          "type": "uint256"
        },
        {
          "indexed": false,
          "internalType": "uint256",
          "name": "collectibleValue",
          "type": "uint256"
        }
      ],
      "name": "EpisodeCreated",
      "type": "event"
    },
    {
      "anonymous": false,
      "inputs": [
        {
          "indexed": false,
          "internalType": "uint256",
          "name": "podcastId",
          "type": "uint256"
        },
        {
          "indexed": false,
          "internalType": "uint256",
          "name": "episodeId",
          "type": "uint256"
        },
        {
          "indexed": false,
          "internalType": "address",
          "name": "guest",
          "type": "address"
        },
        {
          "indexed": false,
          "internalType": "address",
          "name": "nominator",
          "type": "address"
        }
      ],
      "name": "GuestNominated",
      "type": "event"
    },
    {
      "anonymous": false,
      "inputs": [
        {
          "indexed": false,
          "internalType": "uint256",
          "name": "podcastId",
          "type": "uint256"
        },
        {
          "indexed": false,
          "internalType": "uint256",
          "name": "episodeId",
          "type": "uint256"
        },
        {
          "indexed": false,
          "internalType": "address",
          "name": "guest",
          "type": "address"
        },
        {
          "indexed": false,
          "internalType": "uint256",
          "name": "votes",
          "type": "uint256"
        }
      ],
      "name": "GuestVoted",
      "type": "event"
    },
    {
      "anonymous": false,
      "inputs": [
        {
          "indexed": false,
          "internalType": "uint256",
          "name": "podcastId",
          "type": "uint256"
        },
        {
          "indexed": false,
          "internalType": "string",
          "name": "name",
          "type": "string"
        },
        {
          "indexed": false,
          "internalType": "string",
          "name": "description",
          "type": "string"
        },
        {
          "indexed": false,
          "internalType": "string",
          "name": "metadataUri",
          "type": "string"
        },
        {
          "indexed": false,
          "internalType": "string",
          "name": "topic",
          "type": "string"
        },
        {
          "indexed": false,
          "internalType": "address",
          "name": "host",
          "type": "address"
        }
      ],
      "name": "PodcastCreated",
      "type": "event"
    },
    {
      "anonymous": false,
      "inputs": [
        {
          "indexed": true,
          "internalType": "address",
          "name": "operator",
          "type": "address"
        },
        {
          "indexed": true,
          "internalType": "address",
          "name": "from",
          "type": "address"
        },
        {
          "indexed": true,
          "internalType": "address",
          "name": "to",
          "type": "address"
        },
        {
          "indexed": false,
          "internalType": "uint256[]",
          "name": "ids",
          "type": "uint256[]"
        },
        {
          "indexed": false,
          "internalType": "uint256[]",
          "name": "amounts",
          "type": "uint256[]"
        }
      ],
      "name": "TransferBatch",
      "type": "event"
    },
    {
      "anonymous": false,
      "inputs": [
        {
          "indexed": true,
          "internalType": "address",
          "name": "operator",
          "type": "address"
        },
        {
          "indexed": true,
          "internalType": "address",
          "name": "from",
          "type": "address"
        },
        {
          "indexed": true,
          "internalType": "address",
          "name": "to",
          "type": "address"
        },
        {
          "indexed": false,
          "internalType": "uint256",
          "name": "id",
          "type": "uint256"
        },
        {
          "indexed": false,
          "internalType": "uint256",
          "name": "amount",
          "type": "uint256"
        }
      ],
      "name": "TransferSingle",
      "type": "event"
    },
    {
      "anonymous": false,
      "inputs": [
        {
          "indexed": false,
          "internalType": "string",
          "name": "value",
          "type": "string"
        },
        {
          "indexed": true,
          "internalType": "uint256",
          "name": "id",
          "type": "uint256"
        }
      ],
      "name": "URI",
      "type": "event"
    },
    {
      "inputs": [],
      "name": "VOTE_VALUE",
      "outputs": [
        {
          "internalType": "uint256",
          "name": "",
          "type": "uint256"
        }
      ],
      "stateMutability": "view",
      "type": "function"
    },
    {
      "inputs": [
        {
          "internalType": "uint256",
          "name": "_podcastId",
          "type": "uint256"
        },
        {
          "internalType": "string",
          "name": "_episodeUri",
          "type": "string"
        },
        {
          "internalType": "uint256",
          "name": "_collectibleValue",
          "type": "uint256"
        },
        {
          "internalType": "address",
          "name": "_prevGuest",
          "type": "address"
        }
      ],
      "name": "addEpisode",
      "outputs": [],
      "stateMutability": "nonpayable",
      "type": "function"
    },
    {
      "inputs": [
        {
          "internalType": "uint256",
          "name": "podcastId",
          "type": "uint256"
        },
        {
          "internalType": "address",
          "name": "guestAddress",
          "type": "address"
        },
        {
          "internalType": "uint256",
          "name": "_votes",
          "type": "uint256"
        }
      ],
      "name": "addVote",
      "outputs": [],
      "stateMutability": "payable",
      "type": "function"
    },
    {
      "inputs": [
        {
          "internalType": "address",
          "name": "",
          "type": "address"
        },
        {
          "internalType": "uint256",
          "name": "",
          "type": "uint256"
        }
      ],
      "name": "balanceOf",
      "outputs": [
        {
          "internalType": "uint256",
          "name": "",
          "type": "uint256"
        }
      ],
      "stateMutability": "view",
      "type": "function"
    },
    {
      "inputs": [
        {
          "internalType": "address[]",
          "name": "owners",
          "type": "address[]"
        },
        {
          "internalType": "uint256[]",
          "name": "ids",
          "type": "uint256[]"
        }
      ],
      "name": "balanceOfBatch",
      "outputs": [
        {
          "internalType": "uint256[]",
          "name": "balances",
          "type": "uint256[]"
        }
      ],
      "stateMutability": "view",
      "type": "function"
    },
    {
      "inputs": [
        {
          "internalType": "string",
          "name": "_name",
          "type": "string"
        },
        {
          "internalType": "string",
          "name": "_desc",
          "type": "string"
        },
        {
          "internalType": "string",
          "name": "_podMetadataUri",
          "type": "string"
        },
        {
          "internalType": "string",
          "name": "_topic",
          "type": "string"
        }
      ],
      "name": "createPodcast",
      "outputs": [],
      "stateMutability": "nonpayable",
      "type": "function"
    },
    {
      "inputs": [],
      "name": "defaultMetadataUri",
      "outputs": [
        {
          "internalType": "string",
          "name": "",
          "type": "string"
        }
      ],
      "stateMutability": "view",
      "type": "function"
    },
    {
      "inputs": [
        {
          "internalType": "uint256",
          "name": "",
          "type": "uint256"
        }
      ],
      "name": "episodeIdToEpisode",
      "outputs": [
        {
          "internalType": "uint256",
          "name": "podcastId",
          "type": "uint256"
        },
        {
          "internalType": "uint256",
          "name": "episodeId",
          "type": "uint256"
        },
        {
          "internalType": "string",
          "name": "episodeUri",
          "type": "string"
        },
        {
          "internalType": "address",
          "name": "host",
          "type": "address"
        },
        {
          "internalType": "address",
          "name": "guest",
          "type": "address"
        },
        {
          "internalType": "address",
          "name": "prevHost",
          "type": "address"
        },
        {
          "internalType": "address",
          "name": "prevGuest",
          "type": "address"
        },
        {
          "internalType": "address",
          "name": "nextGuest",
          "type": "address"
        },
        {
          "internalType": "address",
          "name": "nextHost",
          "type": "address"
        },
        {
          "internalType": "uint256",
          "name": "timestamp",
          "type": "uint256"
        },
        {
          "internalType": "uint256",
          "name": "collectibleValue",
          "type": "uint256"
        }
      ],
      "stateMutability": "view",
      "type": "function"
    },
    {
      "inputs": [
        {
          "internalType": "address",
          "name": "",
          "type": "address"
        }
      ],
      "name": "fundBalanceOf",
      "outputs": [
        {
          "internalType": "uint256",
          "name": "",
          "type": "uint256"
        }
      ],
      "stateMutability": "view",
      "type": "function"
    },
    {
      "inputs": [],
      "name": "getLatestTokenId",
      "outputs": [
        {
          "internalType": "uint256",
          "name": "",
          "type": "uint256"
        }
      ],
      "stateMutability": "view",
      "type": "function"
    },
    {
      "inputs": [
        {
          "internalType": "address",
          "name": "",
          "type": "address"
        },
        {
          "internalType": "address",
          "name": "",
          "type": "address"
        }
      ],
      "name": "isApprovedForAll",
      "outputs": [
        {
          "internalType": "bool",
          "name": "",
          "type": "bool"
        }
      ],
      "stateMutability": "view",
      "type": "function"
    },
    {
      "inputs": [
        {
          "internalType": "uint256",
          "name": "_episodeId",
          "type": "uint256"
        },
        {
          "internalType": "uint256",
          "name": "_podcastId",
          "type": "uint256"
        }
      ],
      "name": "mintEpisodeCollectible",
      "outputs": [],
      "stateMutability": "payable",
      "type": "function"
    },
    {
      "inputs": [
        {
          "internalType": "uint256",
          "name": "podcastId",
          "type": "uint256"
        },
        {
          "internalType": "address",
          "name": "guestAddress",
          "type": "address"
        }
      ],
      "name": "nominate",
      "outputs": [],
      "stateMutability": "payable",
      "type": "function"
    },
    {
      "inputs": [
        {
          "internalType": "address",
          "name": "",
          "type": "address"
        },
        {
          "internalType": "uint256",
          "name": "",
          "type": "uint256"
        }
      ],
      "name": "nominations",
      "outputs": [
        {
          "internalType": "address",
          "name": "",
          "type": "address"
        }
      ],
      "stateMutability": "view",
      "type": "function"
    },
    {
      "inputs": [
        {
          "internalType": "uint256",
          "name": "",
          "type": "uint256"
        }
      ],
      "name": "podcastIdToPodcast",
      "outputs": [
        {
          "internalType": "uint256",
          "name": "episodeSize",
          "type": "uint256"
        },
        {
          "internalType": "address",
          "name": "host",
          "type": "address"
        },
        {
          "internalType": "address",
          "name": "guest",
          "type": "address"
        },
        {
          "internalType": "string",
          "name": "topic",
          "type": "string"
        },
        {
          "components": [
            {
              "internalType": "uint256",
              "name": "hostRevenueShare",
              "type": "uint256"
            },
            {
              "internalType": "uint256",
              "name": "guestRevenueShare",
              "type": "uint256"
            },
            {
              "internalType": "uint256",
              "name": "publicGoodsShare",
              "type": "uint256"
            }
          ],
          "internalType": "struct Pod.RevenueShare",
          "name": "revenueShares",
          "type": "tuple"
        },
        {
          "internalType": "uint256",
          "name": "podcastId",
          "type": "uint256"
        },
        {
          "internalType": "uint256",
          "name": "latestEpisodeId",
          "type": "uint256"
        },
        {
          "internalType": "uint256",
          "name": "fundValue",
          "type": "uint256"
        },
        {
          "internalType": "uint256",
          "name": "voteBidValue",
          "type": "uint256"
        },
        {
          "internalType": "string",
          "name": "metadataUri",
          "type": "string"
        },
        {
          "internalType": "string",
          "name": "name",
          "type": "string"
        },
        {
          "internalType": "string",
          "name": "description",
          "type": "string"
        }
      ],
      "stateMutability": "view",
      "type": "function"
    },
    {
      "inputs": [
        {
          "internalType": "string",
          "name": "",
          "type": "string"
        }
      ],
      "name": "podcastNameToId",
      "outputs": [
        {
          "internalType": "uint256",
          "name": "",
          "type": "uint256"
        }
      ],
      "stateMutability": "view",
      "type": "function"
    },
    {
      "inputs": [
        {
          "internalType": "address",
          "name": "from",
          "type": "address"
        },
        {
          "internalType": "address",
          "name": "to",
          "type": "address"
        },
        {
          "internalType": "uint256[]",
          "name": "ids",
          "type": "uint256[]"
        },
        {
          "internalType": "uint256[]",
          "name": "amounts",
          "type": "uint256[]"
        },
        {
          "internalType": "bytes",
          "name": "data",
          "type": "bytes"
        }
      ],
      "name": "safeBatchTransferFrom",
      "outputs": [],
      "stateMutability": "nonpayable",
      "type": "function"
    },
    {
      "inputs": [
        {
          "internalType": "address",
          "name": "from",
          "type": "address"
        },
        {
          "internalType": "address",
          "name": "to",
          "type": "address"
        },
        {
          "internalType": "uint256",
          "name": "id",
          "type": "uint256"
        },
        {
          "internalType": "uint256",
          "name": "amount",
          "type": "uint256"
        },
        {
          "internalType": "bytes",
          "name": "data",
          "type": "bytes"
        }
      ],
      "name": "safeTransferFrom",
      "outputs": [],
      "stateMutability": "nonpayable",
      "type": "function"
    },
    {
      "inputs": [
        {
          "internalType": "address",
          "name": "operator",
          "type": "address"
        },
        {
          "internalType": "bool",
          "name": "approved",
          "type": "bool"
        }
      ],
      "name": "setApprovalForAll",
      "outputs": [],
      "stateMutability": "nonpayable",
      "type": "function"
    },
    {
      "inputs": [
        {
          "internalType": "uint256",
          "name": "_podcastId",
          "type": "uint256"
        },
        {
          "internalType": "uint256",
          "name": "hostRevenueShare",
          "type": "uint256"
        },
        {
          "internalType": "uint256",
          "name": "guestRevenueShare",
          "type": "uint256"
        },
        {
          "internalType": "uint256",
          "name": "publicGoodsShare",
          "type": "uint256"
        }
      ],
      "name": "setRevenueShare",
      "outputs": [],
      "stateMutability": "nonpayable",
      "type": "function"
    },
    {
      "inputs": [
        {
          "internalType": "bytes4",
          "name": "interfaceId",
          "type": "bytes4"
        }
      ],
      "name": "supportsInterface",
      "outputs": [
        {
          "internalType": "bool",
          "name": "",
          "type": "bool"
        }
      ],
      "stateMutability": "view",
      "type": "function"
    },
    {
      "inputs": [
        {
          "internalType": "uint256",
          "name": "",
          "type": "uint256"
        }
      ],
      "name": "tokenIdToMetadataUri",
      "outputs": [
        {
          "internalType": "string",
          "name": "",
          "type": "string"
        }
      ],
      "stateMutability": "view",
      "type": "function"
    },
    {
      "inputs": [
        {
          "internalType": "uint256",
          "name": "_tokenId",
          "type": "uint256"
        }
      ],
      "name": "uri",
      "outputs": [
        {
          "internalType": "string",
          "name": "",
          "type": "string"
        }
      ],
      "stateMutability": "view",
      "type": "function"
    },
    {
      "inputs": [
        {
          "internalType": "address",
          "name": "",
          "type": "address"
        }
      ],
      "name": "votes",
      "outputs": [
        {
          "internalType": "uint256",
          "name": "",
          "type": "uint256"
        }
      ],
      "stateMutability": "view",
      "type": "function"
    },
    {
      "inputs": [
        {
          "internalType": "uint256",
          "name": "_podcastId",
          "type": "uint256"
        }
      ],
      "name": "withdrawPodcastFunds",
      "outputs": [],
      "stateMutability": "payable",
      "type": "function"
    },
    {
      "inputs": [
        {
          "internalType": "address",
          "name": "_publicGoodsAddress",
          "type": "address"
        }
      ],
      "name": "withdrawPublicGoodsFunds",
      "outputs": [],
      "stateMutability": "payable",
      "type": "function"
    }
  ],
  "bytecode": {
    "object": "0x60806040523480156200001157600080fd5b5060405162002813380380620028138339810160408190526200003491620000c1565b600262000042828262000208565b5060007f6bb7ff708619ba0610cba295a58592e0451dee2622938c8755667688daf3529b82604051620000769190620002d4565b60405180910390a25062000309565b634e487b7160e01b600052604160045260246000fd5b60005b83811015620000b85781810151838201526020016200009e565b50506000910152565b600060208284031215620000d457600080fd5b81516001600160401b0380821115620000ec57600080fd5b818401915084601f8301126200010157600080fd5b81518181111562000116576200011662000085565b604051601f8201601f19908116603f0116810190838211818310171562000141576200014162000085565b816040528281528760208487010111156200015b57600080fd5b6200016e8360208301602088016200009b565b979650505050505050565b600181811c908216806200018e57607f821691505b602082108103620001af57634e487b7160e01b600052602260045260246000fd5b50919050565b601f8211156200020357600081815260208120601f850160051c81016020861015620001de5750805b601f850160051c820191505b81811015620001ff57828155600101620001ea565b5050505b505050565b81516001600160401b0381111562000224576200022462000085565b6200023c8162000235845462000179565b84620001b5565b602080601f8311600181146200027457600084156200025b5750858301515b600019600386901b1c1916600185901b178555620001ff565b600085815260208120601f198616915b82811015620002a55788860151825594840194600190910190840162000284565b5085821015620002c45787850151600019600388901b60f8161c191681555b5050505050600190811b01905550565b6020815260008251806020840152620002f58160408501602087016200009b565b601f01601f19169190910160400192915050565b6124fa80620003196000396000f3fe6080604052600436106101805760003560e01c806384eaa35d116100d1578063d8bff5a51161008a578063e9997c5211610064578063e9997c52146104e7578063eaebf02614610507578063f242432a1461053f578063fdd474901461055f57600080fd5b8063d8bff5a51461045f578063de2073af1461048c578063e985e9c5146104ac57600080fd5b806384eaa35d1461035b578063a22cb46514610393578063a3179975146103b3578063ba313ef9146103c6578063d35e7efc1461041f578063d54ac7251461044c57600080fd5b80632caa84fd1161013e57806337bf0cf91161011857806337bf0cf9146102f35780634e1273f414610306578063555055f5146103335780637f5d84411461034657600080fd5b80632caa84fd146102985780632eb2c2d6146102b8578063312cea20146102d857600080fd5b8062fdd58e1461018557806301ffc9a7146101cd57806309160063146101fd57806309ca5dc81461021f5780630e89341c1461025657806325d112a914610283575b600080fd5b34801561019157600080fd5b506101ba6101a0366004611979565b600060208181529281526040808220909352908152205481565b6040519081526020015b60405180910390f35b3480156101d957600080fd5b506101ed6101e83660046119bc565b610572565b60405190151581526020016101c4565b34801561020957600080fd5b5061021d610218366004611a83565b6105c4565b005b34801561022b57600080fd5b5061023f61023a366004611b30565b6106ab565b6040516101c49b9a99989796959493929190611b99565b34801561026257600080fd5b50610276610271366004611b30565b61079f565b6040516101c49190611c0c565b34801561028f57600080fd5b506003546101ba565b3480156102a457600080fd5b5061021d6102b3366004611c1f565b61086e565b3480156102c457600080fd5b5061021d6102d3366004611d0e565b61099d565b3480156102e457600080fd5b506101ba662386f26fc1000081565b61021d610301366004611dc9565b610c45565b34801561031257600080fd5b50610326610321366004611de4565b610d1b565b6040516101c49190611e50565b61021d610341366004611e94565b610e50565b34801561035257600080fd5b50610276610f35565b34801561036757600080fd5b5061037b610376366004611b30565b610fc3565b6040516101c49c9b9a99989796959493929190611ec9565b34801561039f57600080fd5b5061021d6103ae366004611f84565b611275565b61021d6103c1366004611fc0565b6112e1565b3480156103d257600080fd5b506104076103e1366004611979565b60076020908152600092835260408084209091529082529020546001600160a01b031681565b6040516001600160a01b0390911681526020016101c4565b34801561042b57600080fd5b506101ba61043a366004611dc9565b600b6020526000908152604090205481565b61021d61045a366004611fe2565b611441565b34801561046b57600080fd5b506101ba61047a366004611dc9565b60086020526000908152604090205481565b34801561049857600080fd5b5061021d6104a736600461200e565b611554565b3480156104b857600080fd5b506101ed6104c7366004612040565b600160209081526000928352604080842090915290825290205460ff1681565b3480156104f357600080fd5b50610276610502366004611b30565b6115b3565b34801561051357600080fd5b506101ba61052236600461206a565b8051602081830181018051600a8252928201919093012091525481565b34801561054b57600080fd5b5061021d61055a3660046120a7565b6115cc565b61021d61056d366004611b30565b6117be565b60006301ffc9a760e01b6001600160e01b0319831614806105a35750636cdb3d1360e11b6001600160e01b03198316145b806105be57506303a24d0760e21b6001600160e01b03198316145b92915050565b6001600360008282546105d79190612135565b90915550506003805460009081526005602052604090206002810180546001600160a01b0319163317905590546008820155600c810161061784826121cd565b50600d810161062686826121cd565b50600e810161063585826121cd565b506004810161064483826121cd565b50600354600090815260096020526040902061066084826121cd565b50600354600a86604051610674919061228d565b9081526020016040518091039020819055506106a433600354600160405180602001604052806000815250611815565b5050505050565b600660205260009081526040902080546001820154600283018054929391926106d390612148565b80601f01602080910402602001604051908101604052809291908181526020018280546106ff90612148565b801561074c5780601f106107215761010080835404028352916020019161074c565b820191906000526020600020905b81548152906001019060200180831161072f57829003601f168201915b50505060038401546004850154600586015460068701546007880154600889015460098a0154600a909a015498996001600160a01b0396871699958716985093861696509185169490811693911691908b565b60008181526009602052604090208054606091906107bc90612148565b15905061086157600082815260096020526040902080546107dc90612148565b80601f016020809104026020016040519081016040528092919081815260200182805461080890612148565b80156108555780601f1061082a57610100808354040283529160200191610855565b820191906000526020600020905b81548152906001019060200180831161083857829003601f168201915b50505050509050919050565b600280546107dc90612148565b6000848152600560205260409020600201546001600160a01b031633146108a857604051638a3a738f60e01b815260040160405180910390fd5b6001600360008282546108bb9190612135565b909155505060035460009081526006602090815260408083208784526005909252822060019081018054929391929091906108f7908490612135565b909155505084815560035460018201556002810161091585826121cd565b5060008581526005602081815260408084206002018054600380880180546001600160a01b03199081166001600160a01b0394851617909155925495880180548416968316969096179095556006870180549189169190921617905542600980870191909155600a860188905592548452919052902061099585826121cd565b505050505050565b8483146109e35760405162461bcd60e51b815260206004820152600f60248201526e0988a9c8ea890be9a92a69a82a8869608b1b60448201526064015b60405180910390fd5b336001600160a01b0389161480610a1d57506001600160a01b038816600090815260016020908152604080832033845290915290205460ff165b610a5a5760405162461bcd60e51b815260206004820152600e60248201526d1393d517d055551213d49256915160921b60448201526064016109da565b60008060005b87811015610b1557888882818110610a7a57610a7a6122a9565b905060200201359250868682818110610a9557610a956122a9565b6001600160a01b038e1660009081526020818152604080832089845282528220805493909102949094013595508593925090610ad29084906122bf565b90915550506001600160a01b038a1660009081526020818152604080832086845290915281208054849290610b08908490612135565b9091555050600101610a60565b50886001600160a01b03168a6001600160a01b0316336001600160a01b03167f4a39dc06d4c0dbc64b70af90fd698a233a518aa5d07e595d983b8c0526c8f7fb8b8b8b8b604051610b699493929190612304565b60405180910390a46001600160a01b0389163b15610c105760405163bc197c8160e01b808252906001600160a01b038b169063bc197c8190610bbd9033908f908e908e908e908e908e908e9060040161235f565b6020604051808303816000875af1158015610bdc573d6000803e3d6000fd5b505050506040513d601f19601f82011682018060405250810190610c0091906123c3565b6001600160e01b03191614610c1d565b6001600160a01b03891615155b610c395760405162461bcd60e51b81526004016109da906123e0565b50505050505050505050565b333014610ca05760405162461bcd60e51b8152602060048201526024808201527f4f6e6c792074686520636f6e74726163742063616e2077697468647261772066604482015263756e647360e01b60648201526084016109da565b6000816001600160a01b03166004546040515b60006040518083038185875af1925050503d8060008114610cf0576040519150601f19603f3d011682016040523d82523d6000602084013e610cf5565b606091505b5050905080610d17576040516327fcd9d160e01b815260040160405180910390fd5b5050565b6060838214610d5e5760405162461bcd60e51b815260206004820152600f60248201526e0988a9c8ea890be9a92a69a82a8869608b1b60448201526064016109da565b8367ffffffffffffffff811115610d7757610d776119e0565b604051908082528060200260200182016040528015610da0578160200160208202803683370190505b50905060005b84811015610e4757600080878784818110610dc357610dc36122a9565b9050602002016020810190610dd89190611dc9565b6001600160a01b03166001600160a01b031681526020019081526020016000206000858584818110610e0c57610e0c6122a9565b90506020020135815260200190815260200160002054828281518110610e3457610e346122a9565b6020908102919091010152600101610da6565b50949350505050565b6000610e63662386f26fc100008361240a565b9050803414610e855760405163356680b760e01b815260040160405180910390fd5b6000848152600560205260409020600201546001600160a01b0390811690841603610ec35760405163a86fe72f60e01b815260040160405180910390fd5b6001600160a01b03831660009081526008602052604081208054849290610eeb908490612135565b90915550506000848152600560205260408120600a018054839290610f11908490612135565b925050819055508060046000828254610f2a9190612135565b909155505050505050565b60028054610f4290612148565b80601f0160208091040260200160405190810160405280929190818152602001828054610f6e90612148565b8015610fbb5780601f10610f9057610100808354040283529160200191610fbb565b820191906000526020600020905b815481529060010190602001808311610f9e57829003601f168201915b505050505081565b600560205260009081526040902060018101546002820154600383015460048401805493946001600160a01b0393841694939092169261100290612148565b80601f016020809104026020016040519081016040528092919081815260200182805461102e90612148565b801561107b5780601f106110505761010080835404028352916020019161107b565b820191906000526020600020905b81548152906001019060200180831161105e57829003601f168201915b5050505050908060050160405180606001604052908160008201548152602001600182015481526020016002820154815250509080600801549080600901549080600a01549080600b01549080600c0180546110d690612148565b80601f016020809104026020016040519081016040528092919081815260200182805461110290612148565b801561114f5780601f106111245761010080835404028352916020019161114f565b820191906000526020600020905b81548152906001019060200180831161113257829003601f168201915b50505050509080600d01805461116490612148565b80601f016020809104026020016040519081016040528092919081815260200182805461119090612148565b80156111dd5780601f106111b2576101008083540402835291602001916111dd565b820191906000526020600020905b8154815290600101906020018083116111c057829003601f168201915b50505050509080600e0180546111f290612148565b80601f016020809104026020016040519081016040528092919081815260200182805461121e90612148565b801561126b5780601f106112405761010080835404028352916020019161126b565b820191906000526020600020905b81548152906001019060200180831161124e57829003601f168201915b505050505090508c565b3360008181526001602090815260408083206001600160a01b03871680855290835292819020805460ff191686151590811790915590519081529192917f17307eab39ab6107e8899845ad3d59bd9653f200f220920489ca2b5937696c31910160405180910390a35050565b6000828152600660205260409020600a015434146113125760405163356680b760e01b815260040160405180910390fd5b60008181526005602052604081206007015461133090606490612421565b61133a903461240a565b6000838152600560208190526040822001549192509061135c90606490612421565b611366903461240a565b6000848152600560205260408120600601549192509061138890606490612421565b611392903461240a565b905082600460008282546113a69190612135565b90915550506000848152600560209081526040808320600201546001600160a01b03168352600b909152812080548492906113e2908490612135565b90915550506000858152600660209081526040808320600401546001600160a01b03168352600b9091528120805483929061141e908490612135565b925050819055506106a43386600160405180602001604052806000815250611815565b662386f26fc1000034146114685760405163356680b760e01b815260040160405180910390fd5b6000828152600560205260409020600201546001600160a01b03908116908216036114a65760405163a86fe72f60e01b815260040160405180910390fd5b6001600160a01b03811660009081526008602052604081208054600192906114cf908490612135565b90915550506000828152600560205260408120600a018054662386f26fc1000092906114fc908490612135565b92505081905550662386f26fc100006004600082825461151c9190612135565b90915550506001600160a01b031660009081526007602090815260408083209383529290522080546001600160a01b03191633179055565b6000848152600560205260409020600201546001600160a01b0316331461158e57604051638a3a738f60e01b815260040160405180910390fd5b6000938452600560208190526040909420938401929092556006830155600790910155565b60096020526000908152604090208054610f4290612148565b336001600160a01b038716148061160657506001600160a01b038616600090815260016020908152604080832033845290915290205460ff165b6116435760405162461bcd60e51b815260206004820152600e60248201526d1393d517d055551213d49256915160921b60448201526064016109da565b6001600160a01b038616600090815260208181526040808320878452909152812080548592906116749084906122bf565b90915550506001600160a01b038516600090815260208181526040808320878452909152812080548592906116aa908490612135565b909155505060408051858152602081018590526001600160a01b03808816929089169133917fc3d58168c5ae7397731d063d5bbf3d657854427343f4c083240f7aacaa2d0f62910160405180910390a46001600160a01b0385163b156117955760405163f23a6e6160e01b808252906001600160a01b0387169063f23a6e61906117429033908b908a908a908a908a90600401612443565b6020604051808303816000875af1158015611761573d6000803e3d6000fd5b505050506040513d601f19601f8201168201806040525081019061178591906123c3565b6001600160e01b031916146117a2565b6001600160a01b03851615155b6109955760405162461bcd60e51b81526004016109da906123e0565b6000818152600560205260409020600201546001600160a01b031633146117f857604051638a3a738f60e01b815260040160405180910390fd5b600081815260056020526040808220600a01549051339190610cb3565b6001600160a01b03841660009081526020818152604080832086845290915281208054849290611846908490612135565b909155505060408051848152602081018490526001600160a01b0386169160009133917fc3d58168c5ae7397731d063d5bbf3d657854427343f4c083240f7aacaa2d0f62910160405180910390a46001600160a01b0384163b1561192e5760405163f23a6e6160e01b808252906001600160a01b0386169063f23a6e61906118db90339060009089908990899060040161248a565b6020604051808303816000875af11580156118fa573d6000803e3d6000fd5b505050506040513d601f19601f8201168201806040525081019061191e91906123c3565b6001600160e01b0319161461193b565b6001600160a01b03841615155b6119575760405162461bcd60e51b81526004016109da906123e0565b50505050565b80356001600160a01b038116811461197457600080fd5b919050565b6000806040838503121561198c57600080fd5b6119958361195d565b946020939093013593505050565b6001600160e01b0319811681146119b957600080fd5b50565b6000602082840312156119ce57600080fd5b81356119d9816119a3565b9392505050565b634e487b7160e01b600052604160045260246000fd5b600082601f830112611a0757600080fd5b813567ffffffffffffffff80821115611a2257611a226119e0565b604051601f8301601f19908116603f01168101908282118183101715611a4a57611a4a6119e0565b81604052838152866020858801011115611a6357600080fd5b836020870160208301376000602085830101528094505050505092915050565b60008060008060808587031215611a9957600080fd5b843567ffffffffffffffff80821115611ab157600080fd5b611abd888389016119f6565b95506020870135915080821115611ad357600080fd5b611adf888389016119f6565b94506040870135915080821115611af557600080fd5b611b01888389016119f6565b93506060870135915080821115611b1757600080fd5b50611b24878288016119f6565b91505092959194509250565b600060208284031215611b4257600080fd5b5035919050565b60005b83811015611b64578181015183820152602001611b4c565b50506000910152565b60008151808452611b85816020860160208601611b49565b601f01601f19169290920160200192915050565b60006101608d83528c6020840152806040840152611bb98184018d611b6d565b6001600160a01b039b8c166060850152998b166080840152505095881660a087015293871660c086015291861660e085015290941661010083015261012082019390935261014001919091529392505050565b6020815260006119d96020830184611b6d565b60008060008060808587031215611c3557600080fd5b84359350602085013567ffffffffffffffff811115611c5357600080fd5b611c5f878288016119f6565b93505060408501359150611c756060860161195d565b905092959194509250565b60008083601f840112611c9257600080fd5b50813567ffffffffffffffff811115611caa57600080fd5b6020830191508360208260051b8501011115611cc557600080fd5b9250929050565b60008083601f840112611cde57600080fd5b50813567ffffffffffffffff811115611cf657600080fd5b602083019150836020828501011115611cc557600080fd5b60008060008060008060008060a0898b031215611d2a57600080fd5b611d338961195d565b9750611d4160208a0161195d565b9650604089013567ffffffffffffffff80821115611d5e57600080fd5b611d6a8c838d01611c80565b909850965060608b0135915080821115611d8357600080fd5b611d8f8c838d01611c80565b909650945060808b0135915080821115611da857600080fd5b50611db58b828c01611ccc565b999c989b5096995094979396929594505050565b600060208284031215611ddb57600080fd5b6119d98261195d565b60008060008060408587031215611dfa57600080fd5b843567ffffffffffffffff80821115611e1257600080fd5b611e1e88838901611c80565b90965094506020870135915080821115611e3757600080fd5b50611e4487828801611c80565b95989497509550505050565b6020808252825182820181905260009190848201906040850190845b81811015611e8857835183529284019291840191600101611e6c565b50909695505050505050565b600080600060608486031215611ea957600080fd5b83359250611eb96020850161195d565b9150604084013590509250925092565b8c81526001600160a01b038c811660208301528b1660408201526101c060608201819052600090611efc8382018d611b6d565b8b51608085015260208c015160a085015260408c015160c085015290508960e0840152886101008401528761012084015286610140840152828103610160840152611f478187611b6d565b9050828103610180840152611f5c8186611b6d565b90508281036101a0840152611f718185611b6d565b9f9e505050505050505050505050505050565b60008060408385031215611f9757600080fd5b611fa08361195d565b915060208301358015158114611fb557600080fd5b809150509250929050565b60008060408385031215611fd357600080fd5b50508035926020909101359150565b60008060408385031215611ff557600080fd5b823591506120056020840161195d565b90509250929050565b6000806000806080858703121561202457600080fd5b5050823594602084013594506040840135936060013592509050565b6000806040838503121561205357600080fd5b61205c8361195d565b91506120056020840161195d565b60006020828403121561207c57600080fd5b813567ffffffffffffffff81111561209357600080fd5b61209f848285016119f6565b949350505050565b60008060008060008060a087890312156120c057600080fd5b6120c98761195d565b95506120d76020880161195d565b94506040870135935060608701359250608087013567ffffffffffffffff81111561210157600080fd5b61210d89828a01611ccc565b979a9699509497509295939492505050565b634e487b7160e01b600052601160045260246000fd5b808201808211156105be576105be61211f565b600181811c9082168061215c57607f821691505b60208210810361217c57634e487b7160e01b600052602260045260246000fd5b50919050565b601f8211156121c857600081815260208120601f850160051c810160208610156121a95750805b601f850160051c820191505b81811015610995578281556001016121b5565b505050565b815167ffffffffffffffff8111156121e7576121e76119e0565b6121fb816121f58454612148565b84612182565b602080601f83116001811461223057600084156122185750858301515b600019600386901b1c1916600185901b178555610995565b600085815260208120601f198616915b8281101561225f57888601518255948401946001909101908401612240565b508582101561227d5787850151600019600388901b60f8161c191681555b5050505050600190811b01905550565b6000825161229f818460208701611b49565b9190910192915050565b634e487b7160e01b600052603260045260246000fd5b818103818111156105be576105be61211f565b81835260006001600160fb1b038311156122eb57600080fd5b8260051b80836020870137939093016020019392505050565b6040815260006123186040830186886122d2565b828103602084015261232b8185876122d2565b979650505050505050565b81835281816020850137506000828201602090810191909152601f909101601f19169091010190565b6001600160a01b0389811682528816602082015260a06040820181905260009061238c908301888a6122d2565b828103606084015261239f8187896122d2565b905082810360808401526123b4818587612336565b9b9a5050505050505050505050565b6000602082840312156123d557600080fd5b81516119d9816119a3565b60208082526010908201526f155394d0519157d49150d2541251539560821b604082015260600190565b80820281158282048414176105be576105be61211f565b60008261243e57634e487b7160e01b600052601260045260246000fd5b500490565b6001600160a01b03878116825286166020820152604081018590526060810184905260a06080820181905260009061247e9083018486612336565b98975050505050505050565b6001600160a01b03868116825285166020820152604081018490526060810183905260a06080820181905260009061232b90830184611b6d56fea2646970667358221220e1ecc69ae86a6884ac1f5ede3620186065fe7ce51100c0d72b91b062ed534a8964736f6c63430008110033",
    "linkReferences": {}
  },
  "methodIdentifiers": {
    "VOTE_VALUE()": "312cea20",
    "addEpisode(uint256,string,uint256,address)": "2caa84fd",
    "addVote(uint256,address,uint256)": "555055f5",
    "balanceOf(address,uint256)": "00fdd58e",
    "balanceOfBatch(address[],uint256[])": "4e1273f4",
    "createPodcast(string,string,string,string)": "09160063",
    "defaultMetadataUri()": "7f5d8441",
    "episodeIdToEpisode(uint256)": "09ca5dc8",
    "fundBalanceOf(address)": "d35e7efc",
    "getLatestTokenId()": "25d112a9",
    "isApprovedForAll(address,address)": "e985e9c5",
    "mintEpisodeCollectible(uint256,uint256)": "a3179975",
    "nominate(uint256,address)": "d54ac725",
    "nominations(address,uint256)": "ba313ef9",
    "podcastIdToPodcast(uint256)": "84eaa35d",
    "podcastNameToId(string)": "eaebf026",
    "safeBatchTransferFrom(address,address,uint256[],uint256[],bytes)": "2eb2c2d6",
    "safeTransferFrom(address,address,uint256,uint256,bytes)": "f242432a",
    "setApprovalForAll(address,bool)": "a22cb465",
    "setRevenueShare(uint256,uint256,uint256,uint256)": "de2073af",
    "supportsInterface(bytes4)": "01ffc9a7",
    "tokenIdToMetadataUri(uint256)": "e9997c52",
    "uri(uint256)": "0e89341c",
    "votes(address)": "d8bff5a5",
    "withdrawPodcastFunds(uint256)": "fdd47490",
    "withdrawPublicGoodsFunds(address)": "37bf0cf9"
  },
  "id": 16
}