{
  "abi": [
    {
      "inputs": [
        {
          "internalType": "string",
          "name": "_defaultMetadataUri",
          "type": "string"
        }
      ],
      "stateMutability": "nonpayable",
      "type": "constructor"
    },
    {
      "inputs": [],
      "name": "GuestIsHost",
      "type": "error"
    },
    {
      "inputs": [],
      "name": "InsufficientFunds",
      "type": "error"
    },
    {
      "inputs": [],
      "name": "InvalidHost",
      "type": "error"
    },
    {
      "anonymous": false,
      "inputs": [
        {
          "indexed": true,
          "internalType": "address",
          "name": "owner",
          "type": "address"
        },
        {
          "indexed": true,
          "internalType": "address",
          "name": "operator",
          "type": "address"
        },
        {
          "indexed": false,
          "internalType": "bool",
          "name": "approved",
          "type": "bool"
        }
      ],
      "name": "ApprovalForAll",
      "type": "event"
    },
    {
      "anonymous": false,
      "inputs": [
        {
          "indexed": true,
          "internalType": "address",
          "name": "operator",
          "type": "address"
        },
        {
          "indexed": true,
          "internalType": "address",
          "name": "from",
          "type": "address"
        },
        {
          "indexed": true,
          "internalType": "address",
          "name": "to",
          "type": "address"
        },
        {
          "indexed": false,
          "internalType": "uint256[]",
          "name": "ids",
          "type": "uint256[]"
        },
        {
          "indexed": false,
          "internalType": "uint256[]",
          "name": "amounts",
          "type": "uint256[]"
        }
      ],
      "name": "TransferBatch",
      "type": "event"
    },
    {
      "anonymous": false,
      "inputs": [
        {
          "indexed": true,
          "internalType": "address",
          "name": "operator",
          "type": "address"
        },
        {
          "indexed": true,
          "internalType": "address",
          "name": "from",
          "type": "address"
        },
        {
          "indexed": true,
          "internalType": "address",
          "name": "to",
          "type": "address"
        },
        {
          "indexed": false,
          "internalType": "uint256",
          "name": "id",
          "type": "uint256"
        },
        {
          "indexed": false,
          "internalType": "uint256",
          "name": "amount",
          "type": "uint256"
        }
      ],
      "name": "TransferSingle",
      "type": "event"
    },
    {
      "anonymous": false,
      "inputs": [
        {
          "indexed": false,
          "internalType": "string",
          "name": "value",
          "type": "string"
        },
        {
          "indexed": true,
          "internalType": "uint256",
          "name": "id",
          "type": "uint256"
        }
      ],
      "name": "URI",
      "type": "event"
    },
    {
      "inputs": [],
      "name": "VOTE_VALUE",
      "outputs": [
        {
          "internalType": "uint256",
          "name": "",
          "type": "uint256"
        }
      ],
      "stateMutability": "view",
      "type": "function"
    },
    {
      "inputs": [
        {
          "internalType": "uint256",
          "name": "_podcastId",
          "type": "uint256"
        },
        {
          "internalType": "string",
          "name": "_topic",
          "type": "string"
        },
        {
          "internalType": "string",
          "name": "_episodeUri",
          "type": "string"
        },
        {
          "internalType": "uint256",
          "name": "_collectibleValue",
          "type": "uint256"
        },
        {
          "internalType": "address",
          "name": "_prevGuest",
          "type": "address"
        }
      ],
      "name": "addEpisode",
      "outputs": [],
      "stateMutability": "nonpayable",
      "type": "function"
    },
    {
      "inputs": [
        {
          "internalType": "uint256",
          "name": "podcastId",
          "type": "uint256"
        },
        {
          "internalType": "address",
          "name": "guestAddress",
          "type": "address"
        },
        {
          "internalType": "uint256",
          "name": "_votes",
          "type": "uint256"
        }
      ],
      "name": "addVote",
      "outputs": [],
      "stateMutability": "payable",
      "type": "function"
    },
    {
      "inputs": [
        {
          "internalType": "address",
          "name": "",
          "type": "address"
        },
        {
          "internalType": "uint256",
          "name": "",
          "type": "uint256"
        }
      ],
      "name": "balanceOf",
      "outputs": [
        {
          "internalType": "uint256",
          "name": "",
          "type": "uint256"
        }
      ],
      "stateMutability": "view",
      "type": "function"
    },
    {
      "inputs": [
        {
          "internalType": "address[]",
          "name": "owners",
          "type": "address[]"
        },
        {
          "internalType": "uint256[]",
          "name": "ids",
          "type": "uint256[]"
        }
      ],
      "name": "balanceOfBatch",
      "outputs": [
        {
          "internalType": "uint256[]",
          "name": "balances",
          "type": "uint256[]"
        }
      ],
      "stateMutability": "view",
      "type": "function"
    },
    {
      "inputs": [
        {
          "internalType": "string",
          "name": "_name",
          "type": "string"
        },
        {
          "internalType": "string",
          "name": "_desc",
          "type": "string"
        },
        {
          "internalType": "bool",
          "name": "_headless",
          "type": "bool"
        },
        {
          "internalType": "string",
          "name": "_podMetadataUri",
          "type": "string"
        }
      ],
      "name": "createPodcast",
      "outputs": [],
      "stateMutability": "nonpayable",
      "type": "function"
    },
    {
      "inputs": [],
      "name": "defaultMetadataUri",
      "outputs": [
        {
          "internalType": "string",
          "name": "",
          "type": "string"
        }
      ],
      "stateMutability": "view",
      "type": "function"
    },
    {
      "inputs": [
        {
          "internalType": "uint256",
          "name": "",
          "type": "uint256"
        }
      ],
      "name": "episodeIdToEpisode",
      "outputs": [
        {
          "internalType": "uint256",
          "name": "podcastId",
          "type": "uint256"
        },
        {
          "internalType": "uint256",
          "name": "episodeId",
          "type": "uint256"
        },
        {
          "internalType": "string",
          "name": "episodeUri",
          "type": "string"
        },
        {
          "internalType": "address",
          "name": "host",
          "type": "address"
        },
        {
          "internalType": "address",
          "name": "guest",
          "type": "address"
        },
        {
          "internalType": "address",
          "name": "prevHost",
          "type": "address"
        },
        {
          "internalType": "address",
          "name": "prevGuest",
          "type": "address"
        },
        {
          "internalType": "address",
          "name": "nextGuest",
          "type": "address"
        },
        {
          "internalType": "address",
          "name": "nextHost",
          "type": "address"
        },
        {
          "internalType": "uint256",
          "name": "timestamp",
          "type": "uint256"
        },
        {
          "internalType": "string",
          "name": "topic",
          "type": "string"
        },
        {
          "internalType": "uint256",
          "name": "collectibleValue",
          "type": "uint256"
        }
      ],
      "stateMutability": "view",
      "type": "function"
    },
    {
      "inputs": [
        {
          "internalType": "address",
          "name": "",
          "type": "address"
        },
        {
          "internalType": "address",
          "name": "",
          "type": "address"
        }
      ],
      "name": "isApprovedForAll",
      "outputs": [
        {
          "internalType": "bool",
          "name": "",
          "type": "bool"
        }
      ],
      "stateMutability": "view",
      "type": "function"
    },
    {
      "inputs": [
        {
          "internalType": "uint256",
          "name": "_episodeId",
          "type": "uint256"
        },
        {
          "internalType": "uint256",
          "name": "_podcastId",
          "type": "uint256"
        }
      ],
      "name": "mintEpisodeCollectible",
      "outputs": [],
      "stateMutability": "payable",
      "type": "function"
    },
    {
      "inputs": [
        {
          "internalType": "uint256",
          "name": "podcastId",
          "type": "uint256"
        },
        {
          "internalType": "address",
          "name": "guestAddress",
          "type": "address"
        }
      ],
      "name": "nominate",
      "outputs": [],
      "stateMutability": "payable",
      "type": "function"
    },
    {
      "inputs": [
        {
          "internalType": "address",
          "name": "",
          "type": "address"
        },
        {
          "internalType": "uint256",
          "name": "",
          "type": "uint256"
        }
      ],
      "name": "nominations",
      "outputs": [
        {
          "internalType": "address",
          "name": "",
          "type": "address"
        }
      ],
      "stateMutability": "view",
      "type": "function"
    },
    {
      "inputs": [
        {
          "internalType": "uint256",
          "name": "",
          "type": "uint256"
        }
      ],
      "name": "podcastIdToPodcast",
      "outputs": [
        {
          "internalType": "uint256",
          "name": "episodeSize",
          "type": "uint256"
        },
        {
          "internalType": "address",
          "name": "host",
          "type": "address"
        },
        {
          "internalType": "address",
          "name": "guest",
          "type": "address"
        },
        {
          "internalType": "bool",
          "name": "headless",
          "type": "bool"
        },
        {
          "internalType": "string",
          "name": "topic",
          "type": "string"
        },
        {
          "internalType": "uint256",
          "name": "hostRevenueShare",
          "type": "uint256"
        },
        {
          "internalType": "uint256",
          "name": "guestRevenueShare",
          "type": "uint256"
        },
        {
          "internalType": "uint256",
          "name": "publicGoodsShare",
          "type": "uint256"
        },
        {
          "internalType": "uint256",
          "name": "podcastId",
          "type": "uint256"
        },
        {
          "internalType": "uint256",
          "name": "latestEpisodeId",
          "type": "uint256"
        },
        {
          "internalType": "uint256",
          "name": "fundValue",
          "type": "uint256"
        },
        {
          "internalType": "uint256",
          "name": "voteBidValue",
          "type": "uint256"
        },
        {
          "components": [
            {
              "internalType": "uint256",
              "name": "endsAt",
              "type": "uint256"
            }
          ],
          "internalType": "struct Pod.VoteBid",
          "name": "currentVoteBid",
          "type": "tuple"
        },
        {
          "internalType": "string",
          "name": "metadataUri",
          "type": "string"
        },
        {
          "internalType": "string",
          "name": "name",
          "type": "string"
        },
        {
          "internalType": "string",
          "name": "description",
          "type": "string"
        }
      ],
      "stateMutability": "view",
      "type": "function"
    },
    {
      "inputs": [
        {
          "internalType": "address",
          "name": "from",
          "type": "address"
        },
        {
          "internalType": "address",
          "name": "to",
          "type": "address"
        },
        {
          "internalType": "uint256[]",
          "name": "ids",
          "type": "uint256[]"
        },
        {
          "internalType": "uint256[]",
          "name": "amounts",
          "type": "uint256[]"
        },
        {
          "internalType": "bytes",
          "name": "data",
          "type": "bytes"
        }
      ],
      "name": "safeBatchTransferFrom",
      "outputs": [],
      "stateMutability": "nonpayable",
      "type": "function"
    },
    {
      "inputs": [
        {
          "internalType": "address",
          "name": "from",
          "type": "address"
        },
        {
          "internalType": "address",
          "name": "to",
          "type": "address"
        },
        {
          "internalType": "uint256",
          "name": "id",
          "type": "uint256"
        },
        {
          "internalType": "uint256",
          "name": "amount",
          "type": "uint256"
        },
        {
          "internalType": "bytes",
          "name": "data",
          "type": "bytes"
        }
      ],
      "name": "safeTransferFrom",
      "outputs": [],
      "stateMutability": "nonpayable",
      "type": "function"
    },
    {
      "inputs": [
        {
          "internalType": "address",
          "name": "operator",
          "type": "address"
        },
        {
          "internalType": "bool",
          "name": "approved",
          "type": "bool"
        }
      ],
      "name": "setApprovalForAll",
      "outputs": [],
      "stateMutability": "nonpayable",
      "type": "function"
    },
    {
      "inputs": [
        {
          "internalType": "uint256",
          "name": "_podcastId",
          "type": "uint256"
        },
        {
          "internalType": "uint256",
          "name": "hostRevenueShare",
          "type": "uint256"
        },
        {
          "internalType": "uint256",
          "name": "guestRevenueShare",
          "type": "uint256"
        },
        {
          "internalType": "uint256",
          "name": "publicGoodsShare",
          "type": "uint256"
        }
      ],
      "name": "setRevenueShare",
      "outputs": [],
      "stateMutability": "nonpayable",
      "type": "function"
    },
    {
      "inputs": [
        {
          "internalType": "bytes4",
          "name": "interfaceId",
          "type": "bytes4"
        }
      ],
      "name": "supportsInterface",
      "outputs": [
        {
          "internalType": "bool",
          "name": "",
          "type": "bool"
        }
      ],
      "stateMutability": "view",
      "type": "function"
    },
    {
      "inputs": [
        {
          "internalType": "uint256",
          "name": "",
          "type": "uint256"
        }
      ],
      "name": "tokenIdToMetadataUri",
      "outputs": [
        {
          "internalType": "string",
          "name": "",
          "type": "string"
        }
      ],
      "stateMutability": "view",
      "type": "function"
    },
    {
      "inputs": [
        {
          "internalType": "uint256",
          "name": "_tokenId",
          "type": "uint256"
        }
      ],
      "name": "uri",
      "outputs": [
        {
          "internalType": "string",
          "name": "",
          "type": "string"
        }
      ],
      "stateMutability": "view",
      "type": "function"
    },
    {
      "inputs": [
        {
          "internalType": "address",
          "name": "",
          "type": "address"
        }
      ],
      "name": "votes",
      "outputs": [
        {
          "internalType": "uint256",
          "name": "",
          "type": "uint256"
        }
      ],
      "stateMutability": "view",
      "type": "function"
    },
    {
      "inputs": [
        {
          "internalType": "uint256",
          "name": "_podcastId",
          "type": "uint256"
        }
      ],
      "name": "withdrawPodcastFunds",
      "outputs": [],
      "stateMutability": "payable",
      "type": "function"
    },
    {
      "inputs": [],
      "name": "withdrawPublicGoodsFunds",
      "outputs": [],
      "stateMutability": "payable",
      "type": "function"
    }
  ],
  "bytecode": {
    "object": "0x608060405234620002175762002401803803806200001d816200021c565b92833981019060208082840312620002175781516001600160401b039283821162000217570192601f9080828601121562000217578451848111620001ec57601f199562000071828501881686016200021c565b928284528583830101116200021757849060005b83811062000202575050600091830101528051938411620001ec57600254926001938481811c91168015620001e1575b82821014620001cb578381116200017f575b50809285116001146200011457508394509083929160009462000108575b50501b916000199060031b1c1916176002555b6040516121be9081620002438239f35b015192503880620000e5565b929484908116600260005284600020946000905b888383106200016457505050106200014a575b505050811b01600255620000f8565b015160001960f88460031b161c191690553880806200013b565b85870151885590960195948501948793509081019062000128565b6002600052816000208480880160051c820192848910620001c1575b0160051c019085905b828110620001b4575050620000c7565b60008155018590620001a4565b925081926200019b565b634e487b7160e01b600052602260045260246000fd5b90607f1690620000b5565b634e487b7160e01b600052604160045260246000fd5b81810183015185820184015286920162000085565b600080fd5b6040519190601f01601f191682016001600160401b03811183821017620001ec5760405256fe608080604052600436101561001357600080fd5b60003560e01c908162fdd58e14611b685750806301ffc9a714611afa57806309ca5dc814611a0f5780630e89341c146119f05780632eb2c2d614611794578063312cea20146117725780634e1273f414611627578063555055f514611497578063638e617e14610f615780637f5d844114610e9357806384eaa35d14610d37578063a22cb46514610cb2578063a317997514610bac578063b220dbe614610b46578063ba313ef914610afe578063d54ac725146109cc578063d8bff5a514610992578063de2073af146108d7578063e985e9c514610881578063e9997c521461083d578063f242432a14610667578063f984ad07146101965763fdd474901461011b57600080fd5b6020366003190112610191576004356000908152600560205260409020600201546001600160a01b0316330361014d57005b606460405162461bcd60e51b815260206004820152602060248201527f4f6e6c792074686520686f73742063616e2077697468647261772066756e64736044820152fd5b600080fd5b346101915760a0366003190112610191576024356001600160401b038111610191576101c6903690600401611d90565b6044356001600160401b038111610191576101e5903690600401611d90565b6084356001600160a01b0381168103610191576004356000908152600560205260409020600201546001600160a01b0316330361065557600354600181018091116103f3578060035560005260066020526040600020906004358255600354600183015582516001600160401b0381116104c0576102666002840154611bd7565b601f811161060e575b50806020601f82116001146105a157600091610596575b508160011b916000199060031b1c19161760028301555b600435600052600560205260018060a01b0360026040600020015416600383016bffffffffffffffffffffffff60a01b918282541617905560018060a01b0360026040600020015416600584019082825416179055600683019160018060a01b03169082541617905542600982015582516001600160401b0381116104c057610329600a830154611bd7565b601f811161054f575b506020601f82116001146104e157819293946000926104d6575b50508160011b916000199060031b1c191617600a8201555b600b6064359101556003546000526009602052604060002081516001600160401b0381116104c0576103968254611bd7565b601f8111610478575b50602092601f82116001146104145792819293600092610409575b50508160011b916000199060031b1c19161790555b60043560005260056020526001604060002001805490600182018092116103f35755005b634e487b7160e01b600052601160045260246000fd5b0151905083806103ba565b601f198216938360005260206000209160005b8681106104605750836001959610610447575b505050811b0190556103cf565b015160001960f88460031b161c1916905583808061043a565b91926020600181928685015181550194019201610427565b826000526020600020601f830160051c810191602084106104b6575b601f0160051c01905b8181106104aa575061039f565b6000815560010161049d565b9091508190610494565b634e487b7160e01b600052604160045260246000fd5b01519050848061034c565b600a830160005260206000209060005b601f19841681106105375750600193949583601f1981161061051e575b505050811b01600a820155610364565b015160001960f88460031b161c1916905584808061050e565b9091602060018192858a0151815501930191016104f1565b600a83016000526020600020601f830160051c81016020841061058f575b601f830160051c82018110610583575050610332565b6000815560010161056d565b508061056d565b905084015186610286565b91506002840160005260206000206000925b601f19831684106105f6576001935082601f198116106105dd575b5050811b01600283015561029d565b86015160001960f88460031b161c1916905586806105ce565b868101518255602093840193600190920191016105b3565b600284016000526020600020601f830160051c81016020841061064e575b601f830160051c8201811061064257505061026f565b6000815560010161062c565b508061062c565b604051638a3a738f60e01b8152600490fd5b346101915760a036600319011261019157610680611bab565b610688611bc1565b6044356064356084356001600160401b038111610191576106ad903690600401611d63565b6001600160a01b0395861693919290913385148015610814575b6106d090611de6565b8460005260209660008852604060002082600052885260406000206106f6848254611e23565b905586169586600052600088526040600020826000528852604060002061071e848254611e30565b90558686604051848152858b8201527fc3d58168c5ae7397731d063d5bbf3d657854427343f4c083240f7aacaa2d0f6260403392a43b61076b57505050505061076991501515611e7e565b005b90600087949596926107b26040519788968795869463f23a6e6160e01b9c8d875233600488015260248701526044860152606485015260a0608485015260a4840191611e5d565b03925af190811561080857610769936000926107db575b50506001600160e01b03191614611e7e565b6107fa9250803d10610801575b6107f28183611c2c565b810190611e3d565b83806107c9565b503d6107e8565b6040513d6000823e3d90fd5b508460005260016020526040600020336000526020526106d060ff6040600020541690506106c7565b3461019157602036600319011261019157600435600052600960205261087d6108696040600020611c4d565b604051918291602083526020830190611cf3565b0390f35b346101915760403660031901126101915761089a611bab565b6108a2611bc1565b9060018060a01b03809116600052600160205260406000209116600052602052602060ff604060002054166040519015158152f35b34610191576080366003190112610191576004356000818152600560205260409020600201546001600160a01b0316330361093d576000526005602052602435600560406000200155604435600660406000200155606435600760406000200155600080f35b60405162461bcd60e51b815260206004820152602760248201527f4f6e6c792074686520686f73742063616e207365742074686520726576656e756044820152666520736861726560c81b6064820152608490fd5b34610191576020366003190112610191576001600160a01b036109b3611bab565b1660005260086020526020604060002054604051908152f35b6040366003190112610191576004356109e3611bc1565b90662386f26fc1000091823403610aa8576000828152600560205260409020600201546001600160a01b0391821691168114610a96578060005260076020526040600020826000526020526040600020336bffffffffffffffffffffffff60a01b82541617905560005260086020526040600020805490600182018092116103f357556000526005602052600a6040600020018054908282018092116103f357556004549081018091116103f357600455005b60405163d57434e760e01b8152600490fd5b60405162461bcd60e51b815260206004820152602860248201527f496e73756666696369656e742066756e647320666f72206e6f6d696e6174696f6044820152671b88185b5bdd5b9d60c21b6064820152608490fd5b346101915760403660031901126101915760206001600160a01b0380610b22611bab565b16600052600782526040600020602435600052825260406000205416604051908152f35b600036600319011261019157303303610b5b57005b60405162461bcd60e51b8152602060048201526024808201527f4f6e6c792074686520636f6e74726163742063616e2077697468647261772066604482015263756e647360e01b6064820152608490fd5b60403660031901126101915760043560243590806000526006602052600b604060002001543403610c5c57610c4282610769936000526005602052610bfc60646007604060002001540434612086565b90806000526005602052610c1b60646005604060002001540434612086565b506000526005602052610c3960646006604060002001540434612086565b50600454611e30565b60045560405190610c5282611c11565b6000825233611f5c565b60405162461bcd60e51b815260206004820152602860248201527f496e73756666696369656e742066756e647320666f7220636f6c6c65637469626044820152676c652076616c756560c01b6064820152608490fd5b3461019157604036600319011261019157610ccb611bab565b6024358015158091036101915733600052600160205260406000209160018060a01b03169182600052602052604060002060ff1981541660ff83161790556040519081527f17307eab39ab6107e8899845ad3d59bd9653f200f220920489ca2b5937696c3160203392a3005b346101915760203660031901126101915760043560005260056020526040600020600181015460018060a01b0360028301541690600383015492610d7d60048201611c4d565b60058201546006830154600784015460088501546009860154600a87015491600b8801549360405195602087018781106001600160401b038211176104c057604052600c8a01548752610dd2600d8b01611c4d565b98610ddf600e8c01611c4d565b9a600f01610dec90611c4d565b9b6040519e8f9e8f9283526020830152600160a01b600190038116604083015260a01c60ff16151590606001528c6102006080819201528d01610e2e91611cf3565b9760a08d015260c08c015260e08b01526101008a0152610120890152610140880152610160870152516101808601528481036101a0860152610e6f91611cf3565b8381036101c0850152610e8191611cf3565b8281036101e084015261087d91611cf3565b34610191576000366003190112610191576040516000600254610eb581611bd7565b80845290600190818116908115610f3a5750600114610edf575b61087d8461086981860382611c2c565b6002600090815292507f405787fa12a823e0f2b7631cc41b3ba8828b3321ca811111fa75cd3aa3bb5ace5b828410610f2257505050810160200161086982610ecf565b80546020858701810191909152909301928101610f0a565b60ff191660208087019190915292151560051b850190920192506108699150839050610ecf565b34610191576080366003190112610191576001600160401b0360043581811161019157610f92903690600401611d90565b9060243581811161019157610fab903690600401611d90565b604435908115158092036101915760643583811161019157610fd1903690600401611d90565b93600354600181018091116103f35760038181556000918252600560205260409091206002810180546001600160a01b03191633179055808201805460ff60a01b191660a09690961b60ff60a01b169590951790945554600884015584518481116104c057611043600d850154611bd7565b601f8111611450575b50806020601f82116001146113e3576000916113d8575b508160011b916000199060031b1c191617600d8401555b8051908482116104c0578190611093600e860154611bd7565b601f8111611385575b50602090601f831160011461131357600092611308575b50508160011b916000199060031b1c191617600e8301555b8051908382116104c0576110e2600f840154611bd7565b601f81116112bd575b50602090601f831160011461124f57600f929160009183611244575b50508160011b916000199060031b1c1916179101555b600354600052600960205260406000209082519081116104c0576111418254611bd7565b601f81116111fc575b50602092601f8211600114611198579281929360009261118d575b50508160011b916000199060031b1c19161790555b61076960035460405190610c5282611c11565b015190508380611165565b601f198216938360005260206000209160005b8681106111e457508360019596106111cb575b505050811b01905561117a565b015160001960f88460031b161c191690558380806111be565b919260206001819286850151815501940192016111ab565b826000526020600020601f830160051c8101916020841061123a575b601f0160051c01905b81811061122e575061114a565b60008155600101611221565b9091508190611218565b015190508680611107565b90601f19831691600f850160005260206000209260005b8181106112a55750916001939185600f96941061128c575b505050811b0191015561111d565b015160001960f88460031b161c1916905586808061127e565b92936020600181928786015181550195019301611266565b600f84016000526020600020601f840160051c810191602085106112fe575b601f0160051c01905b8181106112f257506110eb565b600081556001016112e5565b90915081906112dc565b0151905086806110b3565b9250600e85016000526020600020906000935b601f198416851061136a576001945083601f19811610611351575b505050811b01600e8301556110cb565b015160001960f88460031b161c19169055868080611341565b81810151835560209485019460019093019290910190611326565b909150600e85016000526020600020601f840160051c8101602085106113d1575b90849392915b601f830160051c820181106113c257505061109c565b600081558594506001016113ac565b50806113a6565b905086015187611063565b9150600d850160005260206000206000925b601f1983168410611438576001935082601f1981161061141f575b5050811b01600d84015561107a565b88015160001960f88460031b161c191690558780611410565b888101518255602093840193600190920191016113f5565b600d85016000526020600020601f830160051c810160208410611490575b601f830160051c8201811061148457505061104c565b6000815560010161146e565b508061146e565b6060366003190112610191576004356114ae611bc1565b9060443590662386f26fc10000918281029281840414811517156103f3578234036115d75760018060a01b0380941680600052602094600786526040600020846000528652806040600020541615611599578360005260058652600260406000200154168114611560579161155b9491600593600052600883526115386040600020918254611e30565b905560005252600a604060002001611551828254611e30565b9055600454611e30565b600455005b60405162461bcd60e51b815260048101869052601160248201527011dd595cdd081a5cc81d1a19481a1bdcdd607a1b6044820152606490fd5b60405162461bcd60e51b815260048101879052601660248201527511dd595cdd081a5cc81b9bdd081b9bdb5a5b985d195960521b6044820152606490fd5b60405162461bcd60e51b815260206004820152602260248201527f496e73756666696369656e742066756e647320666f7220766f746520616d6f756044820152611b9d60f21b6064820152608490fd5b34610191576040366003190112610191576001600160401b0360043581811161019157611658903690600401611d33565b9190602491823590811161019157611674903690600401611d33565b929091611682848614611ebd565b61168b85611f45565b926116996040519485611c2c565b8584526116a586611f45565b6020968588019691601f190136883760005b81811061170157888789604051928392818401908285525180915260408401929160005b8281106116ea57505050500390f35b8351855286955093810193928101926001016116db565b61170c818387611efb565b356001600160a01b0381169081900361019157600052600089526040600020611736828587611efb565b356000528952604060002054875182101561175d57600582901b88018a01526001016116b7565b86634e487b7160e01b60005260326004526000fd5b34610191576000366003190112610191576020604051662386f26fc100008152f35b346101915760a0366003190112610191576117ad611bab565b6117b5611bc1565b6001600160401b039190604435838111610191576117d7903690600401611d33565b606435858111610191576117ef903690600401611d33565b9560843590811161019157611808903690600401611d63565b9091611815888514611ebd565b6001600160a01b039687169533871480156119c7575b61183490611de6565b6000978116975b85811061195a575087878a7f4a39dc06d4c0dbc64b70af90fd698a233a518aa5d07e595d983b8c0526c8f7fb60405160408152806118916118818d8d6040850191611f21565b828103602084015233958a611f21565b0390a43b6118ab5750505050505061076991501515611e7e565b604096959651978895869563bc197c8160e01b998a885233600489015260248801526044870160a0905260a48701906118e392611f21565b906003198683030160648701526118f992611f21565b9060031984830301608485015261190f92611e5d565b03815a602094600091f18015610808576107699260009161193c575b506001600160e01b03191614611e7e565b611954915060203d8111610801576107f28183611c2c565b8361192b565b80611968600192888a611efb565b35611974828d87611efb565b35908a6000526020600081526040600020826000528152604060002061199b848254611e23565b90558c60005260008152604060002091600052526119bf6040600020918254611e30565b90550161183b565b5086600052600160205260406000203360005260205261183460ff60406000205416905061182b565b346101915760203660031901126101915761087d610869600435612099565b3461019157602036600319011261019157600435600052600660205260206040600020805490611aef600182015491611a4a60028201611c4d565b9060018060a01b039182600383015416928060048401541690806005850154168160068601541690826007870154169260088701541693611abb600988015496600b611a98600a8b01611c4d565b9901549b6040519e8f9e8f908152015260408d61018091829101528d0190611cf3565b9760608c015260808b015260a08a015260c089015260e0880152610100870152610120860152848203610140860152611cf3565b906101608301520390f35b346101915760203660031901126101915760043563ffffffff60e01b8116809103610191576020906301ffc9a760e01b8114908115611b57575b8115611b46575b506040519015158152f35b6303a24d0760e21b14905082611b3b565b636cdb3d1360e11b81149150611b34565b34610191576040366003190112610191576020906001600160a01b03611b8c611bab565b1660005260008252604060002060243560005282526040600020548152f35b600435906001600160a01b038216820361019157565b602435906001600160a01b038216820361019157565b90600182811c92168015611c07575b6020831014611bf157565b634e487b7160e01b600052602260045260246000fd5b91607f1691611be6565b602081019081106001600160401b038211176104c057604052565b90601f801991011681019081106001600160401b038211176104c057604052565b9060405191826000825492611c6184611bd7565b908184526001948581169081600014611cd05750600114611c8d575b5050611c8b92500383611c2c565b565b9093915060005260209081600020936000915b818310611cb8575050611c8b93508201013880611c7d565b85548884018501529485019487945091830191611ca0565b915050611c8b94506020925060ff191682840152151560051b8201013880611c7d565b919082519283825260005b848110611d1f575050826000602080949584010152601f8019910116010190565b602081830181015184830182015201611cfe565b9181601f84011215610191578235916001600160401b038311610191576020808501948460051b01011161019157565b9181601f84011215610191578235916001600160401b038311610191576020838186019501011161019157565b81601f82011215610191578035906001600160401b0382116104c05760405192611dc4601f8401601f191660200185611c2c565b8284526020838301011161019157816000926020809301838601378301015290565b15611ded57565b60405162461bcd60e51b815260206004820152600e60248201526d1393d517d055551213d49256915160921b6044820152606490fd5b919082039182116103f357565b919082018092116103f357565b9081602091031261019157516001600160e01b0319811681036101915790565b908060209392818452848401376000828201840152601f01601f1916010190565b15611e8557565b60405162461bcd60e51b815260206004820152601060248201526f155394d0519157d49150d2541251539560821b6044820152606490fd5b15611ec457565b60405162461bcd60e51b815260206004820152600f60248201526e0988a9c8ea890be9a92a69a82a8869608b1b6044820152606490fd5b9190811015611f0b5760051b0190565b634e487b7160e01b600052603260045260246000fd5b81835290916001600160fb1b0383116101915760209260051b809284830137010190565b6001600160401b0381116104c05760051b60200190565b6001600160a01b038116600081815260208181526040808320868452825280832080549398979496959194929360018101919082106120725755858885518781526001868201527fc3d58168c5ae7397731d063d5bbf3d657854427343f4c083240f7aacaa2d0f62873392a43b611fde5750505050611c8b9192501515611e7e565b612024839495839289955195868094819363f23a6e6160e01b9b8c845233600485015284602485015260448401526001606484015260a0608484015260a4830190611cf3565b03925af19283156120695750611c8b94959261204c5750506001600160e01b03191614611e7e565b6120629250803d10610801576107f28183611c2c565b38806107c9565b513d87823e3d90fd5b634e487b7160e01b8a52601160045260248afd5b818102929181159184041417156103f357565b600090808252602090600982526120b36040842054611bd7565b6121755750604051828193906002546120cb81611bd7565b8085529160019180831690811561215357506001146120f7575b5050506120f492500382611c2c565b90565b600281527f405787fa12a823e0f2b7631cc41b3ba8828b3321ca811111fa75cd3aa3bb5ace95935091905b81831061213b5750506120f493508201013880806120e5565b85548784018501529485019486945091830191612122565b925050506120f494925060ff191682840152151560051b8201013880806120e5565b9160096040926120f49483525220611c4d56fea264697066735822122030c8b2602d0a3641e552e1d47973a664ffdc856d48580fbed90a4f5413e0c85364736f6c63430008110033",
    "linkReferences": {}
  },
  "methodIdentifiers": {
    "VOTE_VALUE()": "312cea20",
    "addEpisode(uint256,string,string,uint256,address)": "f984ad07",
    "addVote(uint256,address,uint256)": "555055f5",
    "balanceOf(address,uint256)": "00fdd58e",
    "balanceOfBatch(address[],uint256[])": "4e1273f4",
    "createPodcast(string,string,bool,string)": "638e617e",
    "defaultMetadataUri()": "7f5d8441",
    "episodeIdToEpisode(uint256)": "09ca5dc8",
    "isApprovedForAll(address,address)": "e985e9c5",
    "mintEpisodeCollectible(uint256,uint256)": "a3179975",
    "nominate(uint256,address)": "d54ac725",
    "nominations(address,uint256)": "ba313ef9",
    "podcastIdToPodcast(uint256)": "84eaa35d",
    "safeBatchTransferFrom(address,address,uint256[],uint256[],bytes)": "2eb2c2d6",
    "safeTransferFrom(address,address,uint256,uint256,bytes)": "f242432a",
    "setApprovalForAll(address,bool)": "a22cb465",
    "setRevenueShare(uint256,uint256,uint256,uint256)": "de2073af",
    "supportsInterface(bytes4)": "01ffc9a7",
    "tokenIdToMetadataUri(uint256)": "e9997c52",
    "uri(uint256)": "0e89341c",
    "votes(address)": "d8bff5a5",
    "withdrawPodcastFunds(uint256)": "fdd47490",
    "withdrawPublicGoodsFunds()": "b220dbe6"
  },
  "id": 1
}