{
  "abi": [
    {
      "inputs": [
        {
          "internalType": "string",
          "name": "_defaultMetadataUri",
          "type": "string"
        }
      ],
      "stateMutability": "nonpayable",
      "type": "constructor"
    },
    {
      "inputs": [],
      "name": "GuestCantBeHost",
      "type": "error"
    },
    {
      "inputs": [],
      "name": "InsufficientFunds",
      "type": "error"
    },
    {
      "inputs": [],
      "name": "InvalidHost",
      "type": "error"
    },
    {
      "inputs": [],
      "name": "WithdrawalFailed",
      "type": "error"
    },
    {
      "anonymous": false,
      "inputs": [
        {
          "indexed": true,
          "internalType": "address",
          "name": "owner",
          "type": "address"
        },
        {
          "indexed": true,
          "internalType": "address",
          "name": "operator",
          "type": "address"
        },
        {
          "indexed": false,
          "internalType": "bool",
          "name": "approved",
          "type": "bool"
        }
      ],
      "name": "ApprovalForAll",
      "type": "event"
    },
    {
      "anonymous": false,
      "inputs": [
        {
          "indexed": false,
          "internalType": "uint256",
          "name": "podcastId",
          "type": "uint256"
        },
        {
          "indexed": false,
          "internalType": "uint256",
          "name": "episodeId",
          "type": "uint256"
        },
        {
          "indexed": false,
          "internalType": "string",
          "name": "episodeUri",
          "type": "string"
        },
        {
          "indexed": false,
          "internalType": "address",
          "name": "host",
          "type": "address"
        },
        {
          "indexed": false,
          "internalType": "address",
          "name": "guest",
          "type": "address"
        },
        {
          "indexed": false,
          "internalType": "uint256",
          "name": "timestamp",
          "type": "uint256"
        },
        {
          "indexed": false,
          "internalType": "uint256",
          "name": "collectibleValue",
          "type": "uint256"
        }
      ],
      "name": "EpisodeCreated",
      "type": "event"
    },
    {
      "anonymous": false,
      "inputs": [
        {
          "indexed": false,
          "internalType": "uint256",
          "name": "podcastId",
          "type": "uint256"
        },
        {
          "indexed": false,
          "internalType": "uint256",
          "name": "episodeId",
          "type": "uint256"
        },
        {
          "indexed": false,
          "internalType": "address",
          "name": "guest",
          "type": "address"
        },
        {
          "indexed": false,
          "internalType": "address",
          "name": "nominator",
          "type": "address"
        }
      ],
      "name": "GuestNominated",
      "type": "event"
    },
    {
      "anonymous": false,
      "inputs": [
        {
          "indexed": false,
          "internalType": "uint256",
          "name": "podcastId",
          "type": "uint256"
        },
        {
          "indexed": false,
          "internalType": "uint256",
          "name": "episodeId",
          "type": "uint256"
        },
        {
          "indexed": false,
          "internalType": "address",
          "name": "guest",
          "type": "address"
        },
        {
          "indexed": false,
          "internalType": "uint256",
          "name": "votes",
          "type": "uint256"
        }
      ],
      "name": "GuestVoted",
      "type": "event"
    },
    {
      "anonymous": false,
      "inputs": [
        {
          "indexed": false,
          "internalType": "uint256",
          "name": "podcastId",
          "type": "uint256"
        },
        {
          "indexed": false,
          "internalType": "string",
          "name": "name",
          "type": "string"
        },
        {
          "indexed": false,
          "internalType": "string",
          "name": "description",
          "type": "string"
        },
        {
          "indexed": false,
          "internalType": "string",
          "name": "metadataUri",
          "type": "string"
        },
        {
          "indexed": false,
          "internalType": "string",
          "name": "topic",
          "type": "string"
        },
        {
          "indexed": false,
          "internalType": "address",
          "name": "host",
          "type": "address"
        }
      ],
      "name": "PodcastCreated",
      "type": "event"
    },
    {
      "anonymous": false,
      "inputs": [
        {
          "indexed": true,
          "internalType": "address",
          "name": "operator",
          "type": "address"
        },
        {
          "indexed": true,
          "internalType": "address",
          "name": "from",
          "type": "address"
        },
        {
          "indexed": true,
          "internalType": "address",
          "name": "to",
          "type": "address"
        },
        {
          "indexed": false,
          "internalType": "uint256[]",
          "name": "ids",
          "type": "uint256[]"
        },
        {
          "indexed": false,
          "internalType": "uint256[]",
          "name": "amounts",
          "type": "uint256[]"
        }
      ],
      "name": "TransferBatch",
      "type": "event"
    },
    {
      "anonymous": false,
      "inputs": [
        {
          "indexed": true,
          "internalType": "address",
          "name": "operator",
          "type": "address"
        },
        {
          "indexed": true,
          "internalType": "address",
          "name": "from",
          "type": "address"
        },
        {
          "indexed": true,
          "internalType": "address",
          "name": "to",
          "type": "address"
        },
        {
          "indexed": false,
          "internalType": "uint256",
          "name": "id",
          "type": "uint256"
        },
        {
          "indexed": false,
          "internalType": "uint256",
          "name": "amount",
          "type": "uint256"
        }
      ],
      "name": "TransferSingle",
      "type": "event"
    },
    {
      "anonymous": false,
      "inputs": [
        {
          "indexed": false,
          "internalType": "string",
          "name": "value",
          "type": "string"
        },
        {
          "indexed": true,
          "internalType": "uint256",
          "name": "id",
          "type": "uint256"
        }
      ],
      "name": "URI",
      "type": "event"
    },
    {
      "inputs": [],
      "name": "VOTE_VALUE",
      "outputs": [
        {
          "internalType": "uint256",
          "name": "",
          "type": "uint256"
        }
      ],
      "stateMutability": "view",
      "type": "function"
    },
    {
      "inputs": [
        {
          "internalType": "uint256",
          "name": "_podcastId",
          "type": "uint256"
        },
        {
          "internalType": "string",
          "name": "_episodeUri",
          "type": "string"
        },
        {
          "internalType": "uint256",
          "name": "_collectibleValue",
          "type": "uint256"
        },
        {
          "internalType": "address",
          "name": "_prevGuest",
          "type": "address"
        }
      ],
      "name": "addEpisode",
      "outputs": [],
      "stateMutability": "nonpayable",
      "type": "function"
    },
    {
      "inputs": [
        {
          "internalType": "uint256",
          "name": "podcastId",
          "type": "uint256"
        },
        {
          "internalType": "address",
          "name": "guestAddress",
          "type": "address"
        },
        {
          "internalType": "uint256",
          "name": "_votes",
          "type": "uint256"
        }
      ],
      "name": "addVote",
      "outputs": [],
      "stateMutability": "payable",
      "type": "function"
    },
    {
      "inputs": [
        {
          "internalType": "address",
          "name": "",
          "type": "address"
        },
        {
          "internalType": "uint256",
          "name": "",
          "type": "uint256"
        }
      ],
      "name": "balanceOf",
      "outputs": [
        {
          "internalType": "uint256",
          "name": "",
          "type": "uint256"
        }
      ],
      "stateMutability": "view",
      "type": "function"
    },
    {
      "inputs": [
        {
          "internalType": "address[]",
          "name": "owners",
          "type": "address[]"
        },
        {
          "internalType": "uint256[]",
          "name": "ids",
          "type": "uint256[]"
        }
      ],
      "name": "balanceOfBatch",
      "outputs": [
        {
          "internalType": "uint256[]",
          "name": "balances",
          "type": "uint256[]"
        }
      ],
      "stateMutability": "view",
      "type": "function"
    },
    {
      "inputs": [
        {
          "internalType": "string",
          "name": "_name",
          "type": "string"
        },
        {
          "internalType": "string",
          "name": "_desc",
          "type": "string"
        },
        {
          "internalType": "string",
          "name": "_podMetadataUri",
          "type": "string"
        },
        {
          "internalType": "string",
          "name": "_topic",
          "type": "string"
        }
      ],
      "name": "createPodcast",
      "outputs": [],
      "stateMutability": "nonpayable",
      "type": "function"
    },
    {
      "inputs": [],
      "name": "defaultMetadataUri",
      "outputs": [
        {
          "internalType": "string",
          "name": "",
          "type": "string"
        }
      ],
      "stateMutability": "view",
      "type": "function"
    },
    {
      "inputs": [
        {
          "internalType": "uint256",
          "name": "",
          "type": "uint256"
        }
      ],
      "name": "episodeIdToEpisode",
      "outputs": [
        {
          "internalType": "uint256",
          "name": "podcastId",
          "type": "uint256"
        },
        {
          "internalType": "uint256",
          "name": "episodeId",
          "type": "uint256"
        },
        {
          "internalType": "string",
          "name": "episodeUri",
          "type": "string"
        },
        {
          "internalType": "address",
          "name": "host",
          "type": "address"
        },
        {
          "internalType": "address",
          "name": "guest",
          "type": "address"
        },
        {
          "internalType": "address",
          "name": "prevHost",
          "type": "address"
        },
        {
          "internalType": "address",
          "name": "prevGuest",
          "type": "address"
        },
        {
          "internalType": "address",
          "name": "nextGuest",
          "type": "address"
        },
        {
          "internalType": "address",
          "name": "nextHost",
          "type": "address"
        },
        {
          "internalType": "uint256",
          "name": "timestamp",
          "type": "uint256"
        },
        {
          "internalType": "uint256",
          "name": "collectibleValue",
          "type": "uint256"
        }
      ],
      "stateMutability": "view",
      "type": "function"
    },
    {
      "inputs": [
        {
          "internalType": "address",
          "name": "",
          "type": "address"
        }
      ],
      "name": "fundBalanceOf",
      "outputs": [
        {
          "internalType": "uint256",
          "name": "",
          "type": "uint256"
        }
      ],
      "stateMutability": "view",
      "type": "function"
    },
    {
      "inputs": [],
      "name": "getLatestTokenId",
      "outputs": [
        {
          "internalType": "uint256",
          "name": "",
          "type": "uint256"
        }
      ],
      "stateMutability": "view",
      "type": "function"
    },
    {
      "inputs": [
        {
          "internalType": "address",
          "name": "",
          "type": "address"
        },
        {
          "internalType": "address",
          "name": "",
          "type": "address"
        }
      ],
      "name": "isApprovedForAll",
      "outputs": [
        {
          "internalType": "bool",
          "name": "",
          "type": "bool"
        }
      ],
      "stateMutability": "view",
      "type": "function"
    },
    {
      "inputs": [
        {
          "internalType": "uint256",
          "name": "_episodeId",
          "type": "uint256"
        },
        {
          "internalType": "uint256",
          "name": "_podcastId",
          "type": "uint256"
        }
      ],
      "name": "mintEpisodeCollectible",
      "outputs": [],
      "stateMutability": "payable",
      "type": "function"
    },
    {
      "inputs": [
        {
          "internalType": "uint256",
          "name": "podcastId",
          "type": "uint256"
        },
        {
          "internalType": "address",
          "name": "guestAddress",
          "type": "address"
        }
      ],
      "name": "nominate",
      "outputs": [],
      "stateMutability": "payable",
      "type": "function"
    },
    {
      "inputs": [
        {
          "internalType": "address",
          "name": "",
          "type": "address"
        },
        {
          "internalType": "uint256",
          "name": "",
          "type": "uint256"
        }
      ],
      "name": "nominations",
      "outputs": [
        {
          "internalType": "address",
          "name": "",
          "type": "address"
        }
      ],
      "stateMutability": "view",
      "type": "function"
    },
    {
      "inputs": [
        {
          "internalType": "address",
          "name": "",
          "type": "address"
        },
        {
          "internalType": "address",
          "name": "",
          "type": "address"
        },
        {
          "internalType": "uint256[]",
          "name": "",
          "type": "uint256[]"
        },
        {
          "internalType": "uint256[]",
          "name": "",
          "type": "uint256[]"
        },
        {
          "internalType": "bytes",
          "name": "",
          "type": "bytes"
        }
      ],
      "name": "onERC1155BatchReceived",
      "outputs": [
        {
          "internalType": "bytes4",
          "name": "",
          "type": "bytes4"
        }
      ],
      "stateMutability": "nonpayable",
      "type": "function"
    },
    {
      "inputs": [
        {
          "internalType": "address",
          "name": "",
          "type": "address"
        },
        {
          "internalType": "address",
          "name": "",
          "type": "address"
        },
        {
          "internalType": "uint256",
          "name": "",
          "type": "uint256"
        },
        {
          "internalType": "uint256",
          "name": "",
          "type": "uint256"
        },
        {
          "internalType": "bytes",
          "name": "",
          "type": "bytes"
        }
      ],
      "name": "onERC1155Received",
      "outputs": [
        {
          "internalType": "bytes4",
          "name": "",
          "type": "bytes4"
        }
      ],
      "stateMutability": "nonpayable",
      "type": "function"
    },
    {
      "inputs": [
        {
          "internalType": "uint256",
          "name": "",
          "type": "uint256"
        }
      ],
      "name": "podcastIdToPodcast",
      "outputs": [
        {
          "internalType": "uint256",
          "name": "episodeSize",
          "type": "uint256"
        },
        {
          "internalType": "address",
          "name": "host",
          "type": "address"
        },
        {
          "internalType": "address",
          "name": "guest",
          "type": "address"
        },
        {
          "internalType": "string",
          "name": "topic",
          "type": "string"
        },
        {
          "components": [
            {
              "internalType": "uint256",
              "name": "hostRevenueShare",
              "type": "uint256"
            },
            {
              "internalType": "uint256",
              "name": "guestRevenueShare",
              "type": "uint256"
            },
            {
              "internalType": "uint256",
              "name": "publicGoodsShare",
              "type": "uint256"
            }
          ],
          "internalType": "struct Pod.RevenueShare",
          "name": "revenueShares",
          "type": "tuple"
        },
        {
          "internalType": "uint256",
          "name": "podcastId",
          "type": "uint256"
        },
        {
          "internalType": "uint256",
          "name": "latestEpisodeId",
          "type": "uint256"
        },
        {
          "internalType": "uint256",
          "name": "fundValue",
          "type": "uint256"
        },
        {
          "internalType": "uint256",
          "name": "voteBidValue",
          "type": "uint256"
        },
        {
          "internalType": "string",
          "name": "metadataUri",
          "type": "string"
        },
        {
          "internalType": "string",
          "name": "name",
          "type": "string"
        },
        {
          "internalType": "string",
          "name": "description",
          "type": "string"
        }
      ],
      "stateMutability": "view",
      "type": "function"
    },
    {
      "inputs": [
        {
          "internalType": "string",
          "name": "",
          "type": "string"
        }
      ],
      "name": "podcastNameToId",
      "outputs": [
        {
          "internalType": "uint256",
          "name": "",
          "type": "uint256"
        }
      ],
      "stateMutability": "view",
      "type": "function"
    },
    {
      "inputs": [
        {
          "internalType": "address",
          "name": "from",
          "type": "address"
        },
        {
          "internalType": "address",
          "name": "to",
          "type": "address"
        },
        {
          "internalType": "uint256[]",
          "name": "ids",
          "type": "uint256[]"
        },
        {
          "internalType": "uint256[]",
          "name": "amounts",
          "type": "uint256[]"
        },
        {
          "internalType": "bytes",
          "name": "data",
          "type": "bytes"
        }
      ],
      "name": "safeBatchTransferFrom",
      "outputs": [],
      "stateMutability": "nonpayable",
      "type": "function"
    },
    {
      "inputs": [
        {
          "internalType": "address",
          "name": "from",
          "type": "address"
        },
        {
          "internalType": "address",
          "name": "to",
          "type": "address"
        },
        {
          "internalType": "uint256",
          "name": "id",
          "type": "uint256"
        },
        {
          "internalType": "uint256",
          "name": "amount",
          "type": "uint256"
        },
        {
          "internalType": "bytes",
          "name": "data",
          "type": "bytes"
        }
      ],
      "name": "safeTransferFrom",
      "outputs": [],
      "stateMutability": "nonpayable",
      "type": "function"
    },
    {
      "inputs": [
        {
          "internalType": "address",
          "name": "operator",
          "type": "address"
        },
        {
          "internalType": "bool",
          "name": "approved",
          "type": "bool"
        }
      ],
      "name": "setApprovalForAll",
      "outputs": [],
      "stateMutability": "nonpayable",
      "type": "function"
    },
    {
      "inputs": [
        {
          "internalType": "uint256",
          "name": "_podcastId",
          "type": "uint256"
        },
        {
          "internalType": "uint256",
          "name": "hostRevenueShare",
          "type": "uint256"
        },
        {
          "internalType": "uint256",
          "name": "guestRevenueShare",
          "type": "uint256"
        },
        {
          "internalType": "uint256",
          "name": "publicGoodsShare",
          "type": "uint256"
        }
      ],
      "name": "setRevenueShare",
      "outputs": [],
      "stateMutability": "nonpayable",
      "type": "function"
    },
    {
      "inputs": [
        {
          "internalType": "bytes4",
          "name": "interfaceId",
          "type": "bytes4"
        }
      ],
      "name": "supportsInterface",
      "outputs": [
        {
          "internalType": "bool",
          "name": "",
          "type": "bool"
        }
      ],
      "stateMutability": "view",
      "type": "function"
    },
    {
      "inputs": [
        {
          "internalType": "uint256",
          "name": "",
          "type": "uint256"
        }
      ],
      "name": "tokenIdToMetadataUri",
      "outputs": [
        {
          "internalType": "string",
          "name": "",
          "type": "string"
        }
      ],
      "stateMutability": "view",
      "type": "function"
    },
    {
      "inputs": [
        {
          "internalType": "uint256",
          "name": "_tokenId",
          "type": "uint256"
        }
      ],
      "name": "uri",
      "outputs": [
        {
          "internalType": "string",
          "name": "",
          "type": "string"
        }
      ],
      "stateMutability": "view",
      "type": "function"
    },
    {
      "inputs": [
        {
          "internalType": "address",
          "name": "",
          "type": "address"
        }
      ],
      "name": "votes",
      "outputs": [
        {
          "internalType": "uint256",
          "name": "",
          "type": "uint256"
        }
      ],
      "stateMutability": "view",
      "type": "function"
    },
    {
      "inputs": [
        {
          "internalType": "uint256",
          "name": "_podcastId",
          "type": "uint256"
        }
      ],
      "name": "withdrawPodcastFunds",
      "outputs": [],
      "stateMutability": "payable",
      "type": "function"
    },
    {
      "inputs": [
        {
          "internalType": "address",
          "name": "_publicGoodsAddress",
          "type": "address"
        }
      ],
      "name": "withdrawPublicGoodsFunds",
      "outputs": [],
      "stateMutability": "payable",
      "type": "function"
    }
  ],
  "bytecode": {
    "object": "0x60806040523480156200001157600080fd5b50604051620028be380380620028be8339810160408190526200003491620000c1565b600262000042828262000208565b5060007f6bb7ff708619ba0610cba295a58592e0451dee2622938c8755667688daf3529b82604051620000769190620002d4565b60405180910390a25062000309565b634e487b7160e01b600052604160045260246000fd5b60005b83811015620000b85781810151838201526020016200009e565b50506000910152565b600060208284031215620000d457600080fd5b81516001600160401b0380821115620000ec57600080fd5b818401915084601f8301126200010157600080fd5b81518181111562000116576200011662000085565b604051601f8201601f19908116603f0116810190838211818310171562000141576200014162000085565b816040528281528760208487010111156200015b57600080fd5b6200016e8360208301602088016200009b565b979650505050505050565b600181811c908216806200018e57607f821691505b602082108103620001af57634e487b7160e01b600052602260045260246000fd5b50919050565b601f8211156200020357600081815260208120601f850160051c81016020861015620001de5750805b601f850160051c820191505b81811015620001ff57828155600101620001ea565b5050505b505050565b81516001600160401b0381111562000224576200022462000085565b6200023c8162000235845462000179565b84620001b5565b602080601f8311600181146200027457600084156200025b5750858301515b600019600386901b1c1916600185901b178555620001ff565b600085815260208120601f198616915b82811015620002a55788860151825594840194600190910190840162000284565b5085821015620002c45787850151600019600388901b60f8161c191681555b5050505050600190811b01905550565b6020815260008251806020840152620002f58160408501602087016200009b565b601f01601f19169190910160400192915050565b6125a580620003196000396000f3fe6080604052600436106101b65760003560e01c8063a22cb465116100ec578063de2073af1161008a578063eaebf02611610064578063eaebf02614610585578063f23a6e61146105bd578063f242432a146105ea578063fdd474901461060a57600080fd5b8063de2073af1461050a578063e985e9c51461052a578063e9997c521461056557600080fd5b8063bc197c81116100c6578063bc197c8114610455578063d35e7efc1461049d578063d54ac725146104ca578063d8bff5a5146104dd57600080fd5b8063a22cb465146103c9578063a3179975146103e9578063ba313ef9146103fc57600080fd5b80632eb2c2d6116101595780634e1273f4116101335780634e1273f41461033c578063555055f5146103695780637f5d84411461037c57806384eaa35d1461039157600080fd5b80632eb2c2d6146102ee578063312cea201461030e57806337bf0cf91461032957600080fd5b806309ca5dc81161019557806309ca5dc8146102555780630e89341c1461028c57806325d112a9146102b95780632caa84fd146102ce57600080fd5b8062fdd58e146101bb57806301ffc9a7146102035780630916006314610233575b600080fd5b3480156101c757600080fd5b506101f06101d6366004611a24565b600060208181529281526040808220909352908152205481565b6040519081526020015b60405180910390f35b34801561020f57600080fd5b5061022361021e366004611a67565b61061d565b60405190151581526020016101fa565b34801561023f57600080fd5b5061025361024e366004611b2e565b61066f565b005b34801561026157600080fd5b50610275610270366004611bdb565b610756565b6040516101fa9b9a99989796959493929190611c44565b34801561029857600080fd5b506102ac6102a7366004611bdb565b61084a565b6040516101fa9190611cb7565b3480156102c557600080fd5b506003546101f0565b3480156102da57600080fd5b506102536102e9366004611cca565b610919565b3480156102fa57600080fd5b50610253610309366004611db9565b610a48565b34801561031a57600080fd5b506101f0662386f26fc1000081565b610253610337366004611e74565b610cf0565b34801561034857600080fd5b5061035c610357366004611e8f565b610dc6565b6040516101fa9190611efb565b610253610377366004611f3f565b610efb565b34801561038857600080fd5b506102ac610fe0565b34801561039d57600080fd5b506103b16103ac366004611bdb565b61106e565b6040516101fa9c9b9a99989796959493929190611f74565b3480156103d557600080fd5b506102536103e436600461202f565b611320565b6102536103f736600461206b565b61138c565b34801561040857600080fd5b5061043d610417366004611a24565b60076020908152600092835260408084209091529082529020546001600160a01b031681565b6040516001600160a01b0390911681526020016101fa565b34801561046157600080fd5b50610484610470366004611db9565b63bc197c8160e01b98975050505050505050565b6040516001600160e01b031990911681526020016101fa565b3480156104a957600080fd5b506101f06104b8366004611e74565b600b6020526000908152604090205481565b6102536104d836600461208d565b6114ec565b3480156104e957600080fd5b506101f06104f8366004611e74565b60086020526000908152604090205481565b34801561051657600080fd5b506102536105253660046120b9565b6115ff565b34801561053657600080fd5b506102236105453660046120eb565b600160209081526000928352604080842090915290825290205460ff1681565b34801561057157600080fd5b506102ac610580366004611bdb565b61165e565b34801561059157600080fd5b506101f06105a0366004612115565b8051602081830181018051600a8252928201919093012091525481565b3480156105c957600080fd5b506104846105d8366004612152565b63f23a6e6160e01b9695505050505050565b3480156105f657600080fd5b50610253610605366004612152565b611677565b610253610618366004611bdb565b611869565b60006301ffc9a760e01b6001600160e01b03198316148061064e5750636cdb3d1360e11b6001600160e01b03198316145b8061066957506303a24d0760e21b6001600160e01b03198316145b92915050565b60016003600082825461068291906121e0565b90915550506003805460009081526005602052604090206002810180546001600160a01b0319163317905590546008820155600c81016106c28482612278565b50600d81016106d18682612278565b50600e81016106e08582612278565b50600481016106ef8382612278565b50600354600090815260096020526040902061070b8482612278565b50600354600a8660405161071f9190612338565b90815260200160405180910390208190555061074f336003546001604051806020016040528060008152506118c0565b5050505050565b6006602052600090815260409020805460018201546002830180549293919261077e906121f3565b80601f01602080910402602001604051908101604052809291908181526020018280546107aa906121f3565b80156107f75780601f106107cc576101008083540402835291602001916107f7565b820191906000526020600020905b8154815290600101906020018083116107da57829003601f168201915b50505060038401546004850154600586015460068701546007880154600889015460098a0154600a909a015498996001600160a01b0396871699958716985093861696509185169490811693911691908b565b6000818152600960205260409020805460609190610867906121f3565b15905061090c5760008281526009602052604090208054610887906121f3565b80601f01602080910402602001604051908101604052809291908181526020018280546108b3906121f3565b80156109005780601f106108d557610100808354040283529160200191610900565b820191906000526020600020905b8154815290600101906020018083116108e357829003601f168201915b50505050509050919050565b60028054610887906121f3565b6000848152600560205260409020600201546001600160a01b0316331461095357604051638a3a738f60e01b815260040160405180910390fd5b60016003600082825461096691906121e0565b909155505060035460009081526006602090815260408083208784526005909252822060019081018054929391929091906109a29084906121e0565b90915550508481556003546001820155600281016109c08582612278565b5060008581526005602081815260408084206002018054600380880180546001600160a01b03199081166001600160a01b0394851617909155925495880180548416968316969096179095556006870180549189169190921617905542600980870191909155600a8601889055925484529190529020610a408582612278565b505050505050565b848314610a8e5760405162461bcd60e51b815260206004820152600f60248201526e0988a9c8ea890be9a92a69a82a8869608b1b60448201526064015b60405180910390fd5b336001600160a01b0389161480610ac857506001600160a01b038816600090815260016020908152604080832033845290915290205460ff165b610b055760405162461bcd60e51b815260206004820152600e60248201526d1393d517d055551213d49256915160921b6044820152606401610a85565b60008060005b87811015610bc057888882818110610b2557610b25612354565b905060200201359250868682818110610b4057610b40612354565b6001600160a01b038e1660009081526020818152604080832089845282528220805493909102949094013595508593925090610b7d90849061236a565b90915550506001600160a01b038a1660009081526020818152604080832086845290915281208054849290610bb39084906121e0565b9091555050600101610b0b565b50886001600160a01b03168a6001600160a01b0316336001600160a01b03167f4a39dc06d4c0dbc64b70af90fd698a233a518aa5d07e595d983b8c0526c8f7fb8b8b8b8b604051610c1494939291906123af565b60405180910390a46001600160a01b0389163b15610cbb5760405163bc197c8160e01b808252906001600160a01b038b169063bc197c8190610c689033908f908e908e908e908e908e908e9060040161240a565b6020604051808303816000875af1158015610c87573d6000803e3d6000fd5b505050506040513d601f19601f82011682018060405250810190610cab919061246e565b6001600160e01b03191614610cc8565b6001600160a01b03891615155b610ce45760405162461bcd60e51b8152600401610a859061248b565b50505050505050505050565b333014610d4b5760405162461bcd60e51b8152602060048201526024808201527f4f6e6c792074686520636f6e74726163742063616e2077697468647261772066604482015263756e647360e01b6064820152608401610a85565b6000816001600160a01b03166004546040515b60006040518083038185875af1925050503d8060008114610d9b576040519150601f19603f3d011682016040523d82523d6000602084013e610da0565b606091505b5050905080610dc2576040516327fcd9d160e01b815260040160405180910390fd5b5050565b6060838214610e095760405162461bcd60e51b815260206004820152600f60248201526e0988a9c8ea890be9a92a69a82a8869608b1b6044820152606401610a85565b8367ffffffffffffffff811115610e2257610e22611a8b565b604051908082528060200260200182016040528015610e4b578160200160208202803683370190505b50905060005b84811015610ef257600080878784818110610e6e57610e6e612354565b9050602002016020810190610e839190611e74565b6001600160a01b03166001600160a01b031681526020019081526020016000206000858584818110610eb757610eb7612354565b90506020020135815260200190815260200160002054828281518110610edf57610edf612354565b6020908102919091010152600101610e51565b50949350505050565b6000610f0e662386f26fc10000836124b5565b9050803414610f305760405163356680b760e01b815260040160405180910390fd5b6000848152600560205260409020600201546001600160a01b0390811690841603610f6e5760405163a86fe72f60e01b815260040160405180910390fd5b6001600160a01b03831660009081526008602052604081208054849290610f969084906121e0565b90915550506000848152600560205260408120600a018054839290610fbc9084906121e0565b925050819055508060046000828254610fd591906121e0565b909155505050505050565b60028054610fed906121f3565b80601f0160208091040260200160405190810160405280929190818152602001828054611019906121f3565b80156110665780601f1061103b57610100808354040283529160200191611066565b820191906000526020600020905b81548152906001019060200180831161104957829003601f168201915b505050505081565b600560205260009081526040902060018101546002820154600383015460048401805493946001600160a01b039384169493909216926110ad906121f3565b80601f01602080910402602001604051908101604052809291908181526020018280546110d9906121f3565b80156111265780601f106110fb57610100808354040283529160200191611126565b820191906000526020600020905b81548152906001019060200180831161110957829003601f168201915b5050505050908060050160405180606001604052908160008201548152602001600182015481526020016002820154815250509080600801549080600901549080600a01549080600b01549080600c018054611181906121f3565b80601f01602080910402602001604051908101604052809291908181526020018280546111ad906121f3565b80156111fa5780601f106111cf576101008083540402835291602001916111fa565b820191906000526020600020905b8154815290600101906020018083116111dd57829003601f168201915b50505050509080600d01805461120f906121f3565b80601f016020809104026020016040519081016040528092919081815260200182805461123b906121f3565b80156112885780601f1061125d57610100808354040283529160200191611288565b820191906000526020600020905b81548152906001019060200180831161126b57829003601f168201915b50505050509080600e01805461129d906121f3565b80601f01602080910402602001604051908101604052809291908181526020018280546112c9906121f3565b80156113165780601f106112eb57610100808354040283529160200191611316565b820191906000526020600020905b8154815290600101906020018083116112f957829003601f168201915b505050505090508c565b3360008181526001602090815260408083206001600160a01b03871680855290835292819020805460ff191686151590811790915590519081529192917f17307eab39ab6107e8899845ad3d59bd9653f200f220920489ca2b5937696c31910160405180910390a35050565b6000828152600660205260409020600a015434146113bd5760405163356680b760e01b815260040160405180910390fd5b6000818152600560205260408120600701546113db906064906124cc565b6113e590346124b5565b60008381526005602081905260408220015491925090611407906064906124cc565b61141190346124b5565b60008481526005602052604081206006015491925090611433906064906124cc565b61143d90346124b5565b9050826004600082825461145191906121e0565b90915550506000848152600560209081526040808320600201546001600160a01b03168352600b9091528120805484929061148d9084906121e0565b90915550506000858152600660209081526040808320600401546001600160a01b03168352600b909152812080548392906114c99084906121e0565b9250508190555061074f33866001604051806020016040528060008152506118c0565b662386f26fc1000034146115135760405163356680b760e01b815260040160405180910390fd5b6000828152600560205260409020600201546001600160a01b03908116908216036115515760405163a86fe72f60e01b815260040160405180910390fd5b6001600160a01b038116600090815260086020526040812080546001929061157a9084906121e0565b90915550506000828152600560205260408120600a018054662386f26fc1000092906115a79084906121e0565b92505081905550662386f26fc10000600460008282546115c791906121e0565b90915550506001600160a01b031660009081526007602090815260408083209383529290522080546001600160a01b03191633179055565b6000848152600560205260409020600201546001600160a01b0316331461163957604051638a3a738f60e01b815260040160405180910390fd5b6000938452600560208190526040909420938401929092556006830155600790910155565b60096020526000908152604090208054610fed906121f3565b336001600160a01b03871614806116b157506001600160a01b038616600090815260016020908152604080832033845290915290205460ff165b6116ee5760405162461bcd60e51b815260206004820152600e60248201526d1393d517d055551213d49256915160921b6044820152606401610a85565b6001600160a01b0386166000908152602081815260408083208784529091528120805485929061171f90849061236a565b90915550506001600160a01b038516600090815260208181526040808320878452909152812080548592906117559084906121e0565b909155505060408051858152602081018590526001600160a01b03808816929089169133917fc3d58168c5ae7397731d063d5bbf3d657854427343f4c083240f7aacaa2d0f62910160405180910390a46001600160a01b0385163b156118405760405163f23a6e6160e01b808252906001600160a01b0387169063f23a6e61906117ed9033908b908a908a908a908a906004016124ee565b6020604051808303816000875af115801561180c573d6000803e3d6000fd5b505050506040513d601f19601f82011682018060405250810190611830919061246e565b6001600160e01b0319161461184d565b6001600160a01b03851615155b610a405760405162461bcd60e51b8152600401610a859061248b565b6000818152600560205260409020600201546001600160a01b031633146118a357604051638a3a738f60e01b815260040160405180910390fd5b600081815260056020526040808220600a01549051339190610d5e565b6001600160a01b038416600090815260208181526040808320868452909152812080548492906118f19084906121e0565b909155505060408051848152602081018490526001600160a01b0386169160009133917fc3d58168c5ae7397731d063d5bbf3d657854427343f4c083240f7aacaa2d0f62910160405180910390a46001600160a01b0384163b156119d95760405163f23a6e6160e01b808252906001600160a01b0386169063f23a6e6190611986903390600090899089908990600401612535565b6020604051808303816000875af11580156119a5573d6000803e3d6000fd5b505050506040513d601f19601f820116820180604052508101906119c9919061246e565b6001600160e01b031916146119e6565b6001600160a01b03841615155b611a025760405162461bcd60e51b8152600401610a859061248b565b50505050565b80356001600160a01b0381168114611a1f57600080fd5b919050565b60008060408385031215611a3757600080fd5b611a4083611a08565b946020939093013593505050565b6001600160e01b031981168114611a6457600080fd5b50565b600060208284031215611a7957600080fd5b8135611a8481611a4e565b9392505050565b634e487b7160e01b600052604160045260246000fd5b600082601f830112611ab257600080fd5b813567ffffffffffffffff80821115611acd57611acd611a8b565b604051601f8301601f19908116603f01168101908282118183101715611af557611af5611a8b565b81604052838152866020858801011115611b0e57600080fd5b836020870160208301376000602085830101528094505050505092915050565b60008060008060808587031215611b4457600080fd5b843567ffffffffffffffff80821115611b5c57600080fd5b611b6888838901611aa1565b95506020870135915080821115611b7e57600080fd5b611b8a88838901611aa1565b94506040870135915080821115611ba057600080fd5b611bac88838901611aa1565b93506060870135915080821115611bc257600080fd5b50611bcf87828801611aa1565b91505092959194509250565b600060208284031215611bed57600080fd5b5035919050565b60005b83811015611c0f578181015183820152602001611bf7565b50506000910152565b60008151808452611c30816020860160208601611bf4565b601f01601f19169290920160200192915050565b60006101608d83528c6020840152806040840152611c648184018d611c18565b6001600160a01b039b8c166060850152998b166080840152505095881660a087015293871660c086015291861660e085015290941661010083015261012082019390935261014001919091529392505050565b602081526000611a846020830184611c18565b60008060008060808587031215611ce057600080fd5b84359350602085013567ffffffffffffffff811115611cfe57600080fd5b611d0a87828801611aa1565b93505060408501359150611d2060608601611a08565b905092959194509250565b60008083601f840112611d3d57600080fd5b50813567ffffffffffffffff811115611d5557600080fd5b6020830191508360208260051b8501011115611d7057600080fd5b9250929050565b60008083601f840112611d8957600080fd5b50813567ffffffffffffffff811115611da157600080fd5b602083019150836020828501011115611d7057600080fd5b60008060008060008060008060a0898b031215611dd557600080fd5b611dde89611a08565b9750611dec60208a01611a08565b9650604089013567ffffffffffffffff80821115611e0957600080fd5b611e158c838d01611d2b565b909850965060608b0135915080821115611e2e57600080fd5b611e3a8c838d01611d2b565b909650945060808b0135915080821115611e5357600080fd5b50611e608b828c01611d77565b999c989b5096995094979396929594505050565b600060208284031215611e8657600080fd5b611a8482611a08565b60008060008060408587031215611ea557600080fd5b843567ffffffffffffffff80821115611ebd57600080fd5b611ec988838901611d2b565b90965094506020870135915080821115611ee257600080fd5b50611eef87828801611d2b565b95989497509550505050565b6020808252825182820181905260009190848201906040850190845b81811015611f3357835183529284019291840191600101611f17565b50909695505050505050565b600080600060608486031215611f5457600080fd5b83359250611f6460208501611a08565b9150604084013590509250925092565b8c81526001600160a01b038c811660208301528b1660408201526101c060608201819052600090611fa78382018d611c18565b8b51608085015260208c015160a085015260408c015160c085015290508960e0840152886101008401528761012084015286610140840152828103610160840152611ff28187611c18565b90508281036101808401526120078186611c18565b90508281036101a084015261201c8185611c18565b9f9e505050505050505050505050505050565b6000806040838503121561204257600080fd5b61204b83611a08565b91506020830135801515811461206057600080fd5b809150509250929050565b6000806040838503121561207e57600080fd5b50508035926020909101359150565b600080604083850312156120a057600080fd5b823591506120b060208401611a08565b90509250929050565b600080600080608085870312156120cf57600080fd5b5050823594602084013594506040840135936060013592509050565b600080604083850312156120fe57600080fd5b61210783611a08565b91506120b060208401611a08565b60006020828403121561212757600080fd5b813567ffffffffffffffff81111561213e57600080fd5b61214a84828501611aa1565b949350505050565b60008060008060008060a0878903121561216b57600080fd5b61217487611a08565b955061218260208801611a08565b94506040870135935060608701359250608087013567ffffffffffffffff8111156121ac57600080fd5b6121b889828a01611d77565b979a9699509497509295939492505050565b634e487b7160e01b600052601160045260246000fd5b80820180821115610669576106696121ca565b600181811c9082168061220757607f821691505b60208210810361222757634e487b7160e01b600052602260045260246000fd5b50919050565b601f82111561227357600081815260208120601f850160051c810160208610156122545750805b601f850160051c820191505b81811015610a4057828155600101612260565b505050565b815167ffffffffffffffff81111561229257612292611a8b565b6122a6816122a084546121f3565b8461222d565b602080601f8311600181146122db57600084156122c35750858301515b600019600386901b1c1916600185901b178555610a40565b600085815260208120601f198616915b8281101561230a578886015182559484019460019091019084016122eb565b50858210156123285787850151600019600388901b60f8161c191681555b5050505050600190811b01905550565b6000825161234a818460208701611bf4565b9190910192915050565b634e487b7160e01b600052603260045260246000fd5b81810381811115610669576106696121ca565b81835260006001600160fb1b0383111561239657600080fd5b8260051b80836020870137939093016020019392505050565b6040815260006123c360408301868861237d565b82810360208401526123d681858761237d565b979650505050505050565b81835281816020850137506000828201602090810191909152601f909101601f19169091010190565b6001600160a01b0389811682528816602082015260a060408201819052600090612437908301888a61237d565b828103606084015261244a81878961237d565b9050828103608084015261245f8185876123e1565b9b9a5050505050505050505050565b60006020828403121561248057600080fd5b8151611a8481611a4e565b60208082526010908201526f155394d0519157d49150d2541251539560821b604082015260600190565b8082028115828204841417610669576106696121ca565b6000826124e957634e487b7160e01b600052601260045260246000fd5b500490565b6001600160a01b03878116825286166020820152604081018590526060810184905260a06080820181905260009061252990830184866123e1565b98975050505050505050565b6001600160a01b03868116825285166020820152604081018490526060810183905260a0608082018190526000906123d690830184611c1856fea264697066735822122012732601d8d8ff9bf84772480afe4229cb430cef65f460deaca0a28bd9890cbb64736f6c63430008110033",
    "linkReferences": {}
  },
  "methodIdentifiers": {
    "VOTE_VALUE()": "312cea20",
    "addEpisode(uint256,string,uint256,address)": "2caa84fd",
    "addVote(uint256,address,uint256)": "555055f5",
    "balanceOf(address,uint256)": "00fdd58e",
    "balanceOfBatch(address[],uint256[])": "4e1273f4",
    "createPodcast(string,string,string,string)": "09160063",
    "defaultMetadataUri()": "7f5d8441",
    "episodeIdToEpisode(uint256)": "09ca5dc8",
    "fundBalanceOf(address)": "d35e7efc",
    "getLatestTokenId()": "25d112a9",
    "isApprovedForAll(address,address)": "e985e9c5",
    "mintEpisodeCollectible(uint256,uint256)": "a3179975",
    "nominate(uint256,address)": "d54ac725",
    "nominations(address,uint256)": "ba313ef9",
    "onERC1155BatchReceived(address,address,uint256[],uint256[],bytes)": "bc197c81",
    "onERC1155Received(address,address,uint256,uint256,bytes)": "f23a6e61",
    "podcastIdToPodcast(uint256)": "84eaa35d",
    "podcastNameToId(string)": "eaebf026",
    "safeBatchTransferFrom(address,address,uint256[],uint256[],bytes)": "2eb2c2d6",
    "safeTransferFrom(address,address,uint256,uint256,bytes)": "f242432a",
    "setApprovalForAll(address,bool)": "a22cb465",
    "setRevenueShare(uint256,uint256,uint256,uint256)": "de2073af",
    "supportsInterface(bytes4)": "01ffc9a7",
    "tokenIdToMetadataUri(uint256)": "e9997c52",
    "uri(uint256)": "0e89341c",
    "votes(address)": "d8bff5a5",
    "withdrawPodcastFunds(uint256)": "fdd47490",
    "withdrawPublicGoodsFunds(address)": "37bf0cf9"
  },
  "id": 16
}