{
  "abi": [
    {
      "inputs": [
        {
          "internalType": "string",
          "name": "_podcastName",
          "type": "string"
        },
        {
          "internalType": "uint256",
          "name": "_podcastId",
          "type": "uint256"
        }
      ],
      "stateMutability": "nonpayable",
      "type": "constructor"
    },
    {
      "inputs": [],
      "name": "getPodcastId",
      "outputs": [
        {
          "internalType": "uint256",
          "name": "",
          "type": "uint256"
        }
      ],
      "stateMutability": "view",
      "type": "function"
    },
    {
      "inputs": [],
      "name": "getPodcastName",
      "outputs": [
        {
          "internalType": "string",
          "name": "",
          "type": "string"
        }
      ],
      "stateMutability": "view",
      "type": "function"
    }
  ],
  "bytecode": {
    "object": "0x6080604052346101f75761041080380380610019816101fc565b9283398101906040818303126101f75780516001600160401b03908181116101f757820191601f908482850112156101f7578351908382116101cd57602091601f199561006b848887850116016101fc565b978289528483830101116101f7579083929160005b8281106101e35750508260009189010152015160005584519283116101cd5760019384548581811c911680156101c3575b838210146101ad57838111610167575b50819284116001146101085750508192936000926100fd575b5050600019600383901b1c191690821b1790555b6040516101ee90816102228239f35b0151905038806100da565b6000858152828120918516969193925b87821061015057505083859610610137575b505050811b0190556100ee565b015160001960f88460031b161c1916905538808061012a565b808785968294968601518155019501930190610118565b85600052826000208480870160051c8201928588106101a4575b0160051c019086905b8281106101985750506100c1565b6000815501869061018a565b92508192610181565b634e487b7160e01b600052602260045260246000fd5b90607f16906100b1565b634e487b7160e01b600052604160045260246000fd5b8181018501518a8201860152859401610080565b600080fd5b6040519190601f01601f191682016001600160401b038111838210176101cd5760405256fe60806040818152600436101561001457600080fd5b600091823560e01c908163e2226c3414610057575063eb8c8d901461003857600080fd5b34610053578160031936011261005357602091549051908152f35b5080fd5b838334610053578160031936011261005357819260019283549485851c948087169687156101ae575b602097888810811461019a57878652889291811561017b5750600114610126575b505082939450601f801994859203011682019482861067ffffffffffffffff8711176101125785929391838652818452845191828186015281955b8387106100fa5750508394508582601f949501015201168101030190f35b868101820151898801890152958101958895506100dc565b634e487b7160e01b82526041600452602482fd5b80845290915082907fb10e2d527612073b26eecdfd717e6a320cf44b4afac2b0732d9fcbe2b7fa0cf65b878310610168575094955085945083010185876100a1565b8054868401850152918301918101610150565b60ff191683870152509495869550151560051b840101905085876100a1565b634e487b7160e01b85526022600452602485fd5b95607f169561008056fea2646970667358221220d0446086b221305fcf98c3e8cac259cb820e0ae921b6e259efc3dcb880e848ae64736f6c63430008110033",
    "linkReferences": {}
  },
  "methodIdentifiers": {
    "getPodcastId()": "eb8c8d90",
    "getPodcastName()": "e2226c34"
  },
  "id": 21
}