{
  "abi": [
    {
      "inputs": [
        {
          "internalType": "uint256",
          "name": "_tokenId",
          "type": "uint256"
        },
        {
          "internalType": "uint256",
          "name": "_endAt",
          "type": "uint256"
        },
        {
          "internalType": "uint256",
          "name": "_startingBid",
          "type": "uint256"
        }
      ],
      "stateMutability": "nonpayable",
      "type": "constructor"
    },
    {
      "anonymous": false,
      "inputs": [],
      "name": "AuctionEnd",
      "type": "event"
    },
    {
      "anonymous": false,
      "inputs": [],
      "name": "AuctionStart",
      "type": "event"
    },
    {
      "anonymous": false,
      "inputs": [],
      "name": "Bid",
      "type": "event"
    },
    {
      "inputs": [],
      "name": "_bid",
      "outputs": [],
      "stateMutability": "payable",
      "type": "function"
    },
    {
      "inputs": [],
      "name": "_endAuction",
      "outputs": [],
      "stateMutability": "nonpayable",
      "type": "function"
    },
    {
      "inputs": [],
      "name": "_startAuction",
      "outputs": [],
      "stateMutability": "nonpayable",
      "type": "function"
    },
    {
      "inputs": [],
      "name": "_withdraw",
      "outputs": [],
      "stateMutability": "nonpayable",
      "type": "function"
    },
    {
      "inputs": [
        {
          "internalType": "address",
          "name": "",
          "type": "address"
        }
      ],
      "name": "bids",
      "outputs": [
        {
          "internalType": "uint256",
          "name": "",
          "type": "uint256"
        }
      ],
      "stateMutability": "view",
      "type": "function"
    },
    {
      "inputs": [],
      "name": "endAt",
      "outputs": [
        {
          "internalType": "uint256",
          "name": "",
          "type": "uint256"
        }
      ],
      "stateMutability": "view",
      "type": "function"
    },
    {
      "inputs": [],
      "name": "ended",
      "outputs": [
        {
          "internalType": "bool",
          "name": "",
          "type": "bool"
        }
      ],
      "stateMutability": "view",
      "type": "function"
    },
    {
      "inputs": [],
      "name": "highestBid",
      "outputs": [
        {
          "internalType": "uint256",
          "name": "",
          "type": "uint256"
        }
      ],
      "stateMutability": "view",
      "type": "function"
    },
    {
      "inputs": [],
      "name": "highestBidder",
      "outputs": [
        {
          "internalType": "address",
          "name": "",
          "type": "address"
        }
      ],
      "stateMutability": "view",
      "type": "function"
    },
    {
      "inputs": [],
      "name": "started",
      "outputs": [
        {
          "internalType": "bool",
          "name": "",
          "type": "bool"
        }
      ],
      "stateMutability": "view",
      "type": "function"
    },
    {
      "inputs": [],
      "name": "tokenId",
      "outputs": [
        {
          "internalType": "uint256",
          "name": "",
          "type": "uint256"
        }
      ],
      "stateMutability": "view",
      "type": "function"
    }
  ],
  "bytecode": {
    "object": "0x60803461006f57601f61029b38819003918201601f19168301916001600160401b038311848410176100745780849260609460405283398101031261006f57805190604060208201519101519160005560015560035561ffff1960025416600255604051610210908161008b8239f35b600080fd5b634e487b7160e01b600052604160045260246000fdfe608060408181526004361015610015575b600080fd5b600091823560e01c90816312fa6feb146101a25750806317d70f7c146101865780631974a003146100bd5780631f2698ab1461016357806362ea82db146101245780637cc3ae8c1461010657806391f90157146100da578063a99274cd146100bd578063b45e54fb146100c8578063c10eb14d146100bd5763d57bde791461009c57600080fd5b346100b957816003193601126100b9576020906003549051908152f35b5080fd5b5050506100106101c6565b82806003193601126100d75780f35b80fd5b50346100b957816003193601126100b957600254905160109190911c6001600160a01b03168152602090f35b50346100b957816003193601126100b9576020906001549051908152f35b50346100b95760203660031901126100b9576004356001600160a01b0381169081900361015f57828291602094526004845220549051908152f35b8280fd5b50346100b957816003193601126100b95760209060ff6002541690519015158152f35b50346100b957816003193601126100b957602091549051908152f35b8390346100b957816003193601126100b95760209060ff60025460081c1615158152f35b50346100105760003660031901126100105700fea2646970667358221220fa66df95656dc6f76484ca60c763b53ec6c0d8e584a2cd7a456994f568e0de7564736f6c63430008110033",
    "linkReferences": {}
  },
  "methodIdentifiers": {
    "_bid()": "b45e54fb",
    "_endAuction()": "a99274cd",
    "_startAuction()": "1974a003",
    "_withdraw()": "c10eb14d",
    "bids(address)": "62ea82db",
    "endAt()": "7cc3ae8c",
    "ended()": "12fa6feb",
    "highestBid()": "d57bde79",
    "highestBidder()": "91f90157",
    "started()": "1f2698ab",
    "tokenId()": "17d70f7c"
  },
  "id": 18
}